{
  "contractName": "LibraryBooks",
  "abi": [
    {
      "inputs": [],
      "stateMutability": "nonpayable",
      "type": "constructor"
    },
    {
      "anonymous": false,
      "inputs": [
        {
          "indexed": true,
          "internalType": "address",
          "name": "owner",
          "type": "address"
        },
        {
          "indexed": true,
          "internalType": "address",
          "name": "approved",
          "type": "address"
        },
        {
          "indexed": true,
          "internalType": "uint256",
          "name": "tokenId",
          "type": "uint256"
        }
      ],
      "name": "Approval",
      "type": "event"
    },
    {
      "anonymous": false,
      "inputs": [
        {
          "indexed": true,
          "internalType": "address",
          "name": "owner",
          "type": "address"
        },
        {
          "indexed": true,
          "internalType": "address",
          "name": "operator",
          "type": "address"
        },
        {
          "indexed": false,
          "internalType": "bool",
          "name": "approved",
          "type": "bool"
        }
      ],
      "name": "ApprovalForAll",
      "type": "event"
    },
    {
      "anonymous": false,
      "inputs": [
        {
          "indexed": true,
          "internalType": "uint256",
          "name": "tokenId",
          "type": "uint256"
        },
        {
          "indexed": false,
          "internalType": "string",
          "name": "borrowerRollNo",
          "type": "string"
        },
        {
          "indexed": false,
          "internalType": "uint256",
          "name": "borrowTimestamp",
          "type": "uint256"
        }
      ],
      "name": "BookBorrowed",
      "type": "event"
    },
    {
      "anonymous": false,
      "inputs": [
        {
          "indexed": true,
          "internalType": "uint256",
          "name": "tokenId",
          "type": "uint256"
        }
      ],
      "name": "BookReturned",
      "type": "event"
    },
    {
      "anonymous": false,
      "inputs": [
        {
          "indexed": true,
          "internalType": "address",
          "name": "user",
          "type": "address"
        },
        {
          "indexed": false,
          "internalType": "uint256",
          "name": "amount",
          "type": "uint256"
        }
      ],
      "name": "FinePaid",
      "type": "event"
    },
    {
      "anonymous": false,
      "inputs": [
        {
          "indexed": true,
          "internalType": "address",
          "name": "previousOwner",
          "type": "address"
        },
        {
          "indexed": true,
          "internalType": "address",
          "name": "newOwner",
          "type": "address"
        }
      ],
      "name": "OwnershipTransferred",
      "type": "event"
    },
    {
      "anonymous": false,
      "inputs": [
        {
          "indexed": true,
          "internalType": "address",
          "name": "from",
          "type": "address"
        },
        {
          "indexed": true,
          "internalType": "address",
          "name": "to",
          "type": "address"
        },
        {
          "indexed": true,
          "internalType": "uint256",
          "name": "tokenId",
          "type": "uint256"
        }
      ],
      "name": "Transfer",
      "type": "event"
    },
    {
      "anonymous": false,
      "inputs": [
        {
          "indexed": true,
          "internalType": "address",
          "name": "user",
          "type": "address"
        },
        {
          "indexed": false,
          "internalType": "uint256",
          "name": "securityDeposit",
          "type": "uint256"
        }
      ],
      "name": "UserRegistered",
      "type": "event"
    },
    {
      "inputs": [
        {
          "internalType": "address",
          "name": "to",
          "type": "address"
        },
        {
          "internalType": "uint256",
          "name": "tokenId",
          "type": "uint256"
        }
      ],
      "name": "approve",
      "outputs": [],
      "stateMutability": "nonpayable",
      "type": "function"
    },
    {
      "inputs": [
        {
          "internalType": "address",
          "name": "owner",
          "type": "address"
        }
      ],
      "name": "balanceOf",
      "outputs": [
        {
          "internalType": "uint256",
          "name": "",
          "type": "uint256"
        }
      ],
      "stateMutability": "view",
      "type": "function"
    },
    {
      "inputs": [
        {
          "internalType": "uint256",
          "name": "",
          "type": "uint256"
        }
      ],
      "name": "books",
      "outputs": [
        {
          "internalType": "string",
          "name": "title",
          "type": "string"
        },
        {
          "internalType": "string",
          "name": "author",
          "type": "string"
        },
        {
          "internalType": "string",
          "name": "publisher",
          "type": "string"
        },
        {
          "internalType": "string",
          "name": "isbn",
          "type": "string"
        },
        {
          "internalType": "bool",
          "name": "isAvailable",
          "type": "bool"
        },
        {
          "internalType": "string",
          "name": "borrowerRollNo",
          "type": "string"
        },
        {
          "internalType": "uint256",
          "name": "borrowTimestamp",
          "type": "uint256"
        }
      ],
      "stateMutability": "view",
      "type": "function"
    },
    {
      "inputs": [],
      "name": "fineRate",
      "outputs": [
        {
          "internalType": "uint256",
          "name": "",
          "type": "uint256"
        }
      ],
      "stateMutability": "view",
      "type": "function"
    },
    {
      "inputs": [
        {
          "internalType": "uint256",
          "name": "tokenId",
          "type": "uint256"
        }
      ],
      "name": "getApproved",
      "outputs": [
        {
          "internalType": "address",
          "name": "",
          "type": "address"
        }
      ],
      "stateMutability": "view",
      "type": "function"
    },
    {
      "inputs": [
        {
          "internalType": "address",
          "name": "owner",
          "type": "address"
        },
        {
          "internalType": "address",
          "name": "operator",
          "type": "address"
        }
      ],
      "name": "isApprovedForAll",
      "outputs": [
        {
          "internalType": "bool",
          "name": "",
          "type": "bool"
        }
      ],
      "stateMutability": "view",
      "type": "function"
    },
    {
      "inputs": [],
      "name": "maxBorrowDuration",
      "outputs": [
        {
          "internalType": "uint256",
          "name": "",
          "type": "uint256"
        }
      ],
      "stateMutability": "view",
      "type": "function"
    },
    {
      "inputs": [],
      "name": "name",
      "outputs": [
        {
          "internalType": "string",
          "name": "",
          "type": "string"
        }
      ],
      "stateMutability": "view",
      "type": "function"
    },
    {
      "inputs": [],
      "name": "owner",
      "outputs": [
        {
          "internalType": "address",
          "name": "",
          "type": "address"
        }
      ],
      "stateMutability": "view",
      "type": "function"
    },
    {
      "inputs": [
        {
          "internalType": "uint256",
          "name": "tokenId",
          "type": "uint256"
        }
      ],
      "name": "ownerOf",
      "outputs": [
        {
          "internalType": "address",
          "name": "",
          "type": "address"
        }
      ],
      "stateMutability": "view",
      "type": "function"
    },
    {
      "inputs": [],
      "name": "renounceOwnership",
      "outputs": [],
      "stateMutability": "nonpayable",
      "type": "function"
    },
    {
      "inputs": [
        {
          "internalType": "address",
          "name": "from",
          "type": "address"
        },
        {
          "internalType": "address",
          "name": "to",
          "type": "address"
        },
        {
          "internalType": "uint256",
          "name": "tokenId",
          "type": "uint256"
        }
      ],
      "name": "safeTransferFrom",
      "outputs": [],
      "stateMutability": "nonpayable",
      "type": "function"
    },
    {
      "inputs": [
        {
          "internalType": "address",
          "name": "from",
          "type": "address"
        },
        {
          "internalType": "address",
          "name": "to",
          "type": "address"
        },
        {
          "internalType": "uint256",
          "name": "tokenId",
          "type": "uint256"
        },
        {
          "internalType": "bytes",
          "name": "data",
          "type": "bytes"
        }
      ],
      "name": "safeTransferFrom",
      "outputs": [],
      "stateMutability": "nonpayable",
      "type": "function"
    },
    {
      "inputs": [],
      "name": "securityDepositAmount",
      "outputs": [
        {
          "internalType": "uint256",
          "name": "",
          "type": "uint256"
        }
      ],
      "stateMutability": "view",
      "type": "function"
    },
    {
      "inputs": [
        {
          "internalType": "address",
          "name": "operator",
          "type": "address"
        },
        {
          "internalType": "bool",
          "name": "approved",
          "type": "bool"
        }
      ],
      "name": "setApprovalForAll",
      "outputs": [],
      "stateMutability": "nonpayable",
      "type": "function"
    },
    {
      "inputs": [
        {
          "internalType": "bytes4",
          "name": "interfaceId",
          "type": "bytes4"
        }
      ],
      "name": "supportsInterface",
      "outputs": [
        {
          "internalType": "bool",
          "name": "",
          "type": "bool"
        }
      ],
      "stateMutability": "view",
      "type": "function"
    },
    {
      "inputs": [],
      "name": "symbol",
      "outputs": [
        {
          "internalType": "string",
          "name": "",
          "type": "string"
        }
      ],
      "stateMutability": "view",
      "type": "function"
    },
    {
      "inputs": [
        {
          "internalType": "uint256",
          "name": "tokenId",
          "type": "uint256"
        }
      ],
      "name": "tokenURI",
      "outputs": [
        {
          "internalType": "string",
          "name": "",
          "type": "string"
        }
      ],
      "stateMutability": "view",
      "type": "function"
    },
    {
      "inputs": [
        {
          "internalType": "address",
          "name": "from",
          "type": "address"
        },
        {
          "internalType": "address",
          "name": "to",
          "type": "address"
        },
        {
          "internalType": "uint256",
          "name": "tokenId",
          "type": "uint256"
        }
      ],
      "name": "transferFrom",
      "outputs": [],
      "stateMutability": "nonpayable",
      "type": "function"
    },
    {
      "inputs": [
        {
          "internalType": "address",
          "name": "newOwner",
          "type": "address"
        }
      ],
      "name": "transferOwnership",
      "outputs": [],
      "stateMutability": "nonpayable",
      "type": "function"
    },
    {
      "inputs": [
        {
          "internalType": "address",
          "name": "",
          "type": "address"
        }
      ],
      "name": "users",
      "outputs": [
        {
          "internalType": "bool",
          "name": "isRegistered",
          "type": "bool"
        },
        {
          "internalType": "uint256",
          "name": "securityDeposit",
          "type": "uint256"
        },
        {
          "internalType": "uint256",
          "name": "fineAmount",
          "type": "uint256"
        }
      ],
      "stateMutability": "view",
      "type": "function"
    },
    {
      "inputs": [
        {
          "internalType": "address",
          "name": "recipient",
          "type": "address"
        },
        {
          "internalType": "string",
          "name": "title",
          "type": "string"
        },
        {
          "internalType": "string",
          "name": "author",
          "type": "string"
        },
        {
          "internalType": "string",
          "name": "publisher",
          "type": "string"
        },
        {
          "internalType": "string",
          "name": "isbn",
          "type": "string"
        }
      ],
      "name": "mintBook",
      "outputs": [
        {
          "internalType": "uint256",
          "name": "",
          "type": "uint256"
        }
      ],
      "stateMutability": "nonpayable",
      "type": "function"
    },
    {
      "inputs": [],
      "name": "registerUser",
      "outputs": [],
      "stateMutability": "payable",
      "type": "function"
    },
    {
      "inputs": [
        {
          "internalType": "uint256",
          "name": "tokenId",
          "type": "uint256"
        },
        {
          "internalType": "string",
          "name": "borrowerRollNo",
          "type": "string"
        }
      ],
      "name": "borrowBook",
      "outputs": [],
      "stateMutability": "nonpayable",
      "type": "function"
    },
    {
      "inputs": [
        {
          "internalType": "uint256",
          "name": "tokenId",
          "type": "uint256"
        }
      ],
      "name": "returnBook",
      "outputs": [],
      "stateMutability": "nonpayable",
      "type": "function"
    }
  ],
  "bytecode": "0x60806040523480156200001157600080fd5b506040518060400160405280600d81526020017f4c69627261727920426f6f6b73000000000000000000000000000000000000008152506040518060400160405280600381526020017f4c424b000000000000000000000000000000000000000000000000000000000081525081600090816200008f919062000438565b508060019081620000a1919062000438565b505050620000c4620000b8620000f060201b60201c565b620000f860201b60201c565b62127500600a8190555067016345785d8a0000600b819055506509184e72a000600c819055506200051f565b600033905090565b6000600660009054906101000a900473ffffffffffffffffffffffffffffffffffffffff16905081600660006101000a81548173ffffffffffffffffffffffffffffffffffffffff021916908373ffffffffffffffffffffffffffffffffffffffff1602179055508173ffffffffffffffffffffffffffffffffffffffff168173ffffffffffffffffffffffffffffffffffffffff167f8be0079c531659141344cd1fd0a4f28419497f9722a3daafe3b4186f6b6457e060405160405180910390a35050565b600081519050919050565b7f4e487b7100000000000000000000000000000000000000000000000000000000600052604160045260246000fd5b7f4e487b7100000000000000000000000000000000000000000000000000000000600052602260045260246000fd5b600060028204905060018216806200024057607f821691505b602082108103620002565762000255620001f8565b5b50919050565b60008190508160005260206000209050919050565b60006020601f8301049050919050565b600082821b905092915050565b600060088302620002c07fffffffffffffffffffffffffffffffffffffffffffffffffffffffffffffffff8262000281565b620002cc868362000281565b95508019841693508086168417925050509392505050565b6000819050919050565b6000819050919050565b600062000319620003136200030d84620002e4565b620002ee565b620002e4565b9050919050565b6000819050919050565b6200033583620002f8565b6200034d620003448262000320565b8484546200028e565b825550505050565b600090565b6200036462000355565b620003718184846200032a565b505050565b5b8181101562000399576200038d6000826200035a565b60018101905062000377565b5050565b601f821115620003e857620003b2816200025c565b620003bd8462000271565b81016020851015620003cd578190505b620003e5620003dc8562000271565b83018262000376565b50505b505050565b600082821c905092915050565b60006200040d60001984600802620003ed565b1980831691505092915050565b6000620004288383620003fa565b9150826002028217905092915050565b6200044382620001be565b67ffffffffffffffff8111156200045f576200045e620001c9565b5b6200046b825462000227565b620004788282856200039d565b600060209050601f831160018114620004b057600084156200049b578287015190505b620004a785826200041a565b86555062000517565b601f198416620004c0866200025c565b60005b82811015620004ea57848901518255600182019150602085019450602081019050620004c3565b868310156200050a578489015162000506601f891682620003fa565b8355505b6001600288020188555050505b505050505050565b614269806200052f6000396000f3fe6080604052600436106101665760003560e01c8063715018a6116100d1578063a87430ba1161008a578063ca5140c911610064578063ca5140c914610537578063da0e23eb14610560578063e985e9c51461059d578063f2fde38b146105da57610166565b8063a87430ba14610492578063b88d4fde146104d1578063c87b56dd146104fa57610166565b8063715018a6146103a65780637df140e0146103bd5780638da5cb5b146103e857806393aa28451461041357806395d89b411461043e578063a22cb4651461046957610166565b80634d3820eb116101235780634d3820eb1461028b5780635301d33b14610295578063603878a6146102be5780636352211e146102e9578063687440461461032657806370a082311461036957610166565b806301ffc9a71461016b57806306fdde03146101a8578063081812fc146101d3578063095ea7b31461021057806323b872dd1461023957806342842e0e14610262575b600080fd5b34801561017757600080fd5b50610192600480360381019061018d9190612a2c565b610603565b60405161019f9190612a74565b60405180910390f35b3480156101b457600080fd5b506101bd6106e5565b6040516101ca9190612b1f565b60405180910390f35b3480156101df57600080fd5b506101fa60048036038101906101f59190612b77565b610777565b6040516102079190612be5565b60405180910390f35b34801561021c57600080fd5b5061023760048036038101906102329190612c2c565b6107bd565b005b34801561024557600080fd5b50610260600480360381019061025b9190612c6c565b6108d4565b005b34801561026e57600080fd5b5061028960048036038101906102849190612c6c565b610934565b005b610293610954565b005b3480156102a157600080fd5b506102bc60048036038101906102b79190612df4565b610b0e565b005b3480156102ca57600080fd5b506102d3610cf4565b6040516102e09190612e5f565b60405180910390f35b3480156102f557600080fd5b50610310600480360381019061030b9190612b77565b610cfa565b60405161031d9190612be5565b60405180910390f35b34801561033257600080fd5b5061034d60048036038101906103489190612b77565b610d80565b6040516103609796959493929190612e7a565b60405180910390f35b34801561037557600080fd5b50610390600480360381019061038b9190612f0c565b611077565b60405161039d9190612e5f565b60405180910390f35b3480156103b257600080fd5b506103bb61112e565b005b3480156103c957600080fd5b506103d2611142565b6040516103df9190612e5f565b60405180910390f35b3480156103f457600080fd5b506103fd611148565b60405161040a9190612be5565b60405180910390f35b34801561041f57600080fd5b50610428611172565b6040516104359190612e5f565b60405180910390f35b34801561044a57600080fd5b50610453611178565b6040516104609190612b1f565b60405180910390f35b34801561047557600080fd5b50610490600480360381019061048b9190612f65565b61120a565b005b34801561049e57600080fd5b506104b960048036038101906104b49190612f0c565b611220565b6040516104c893929190612fa5565b60405180910390f35b3480156104dd57600080fd5b506104f860048036038101906104f3919061307d565b611257565b005b34801561050657600080fd5b50610521600480360381019061051c9190612b77565b6112b9565b60405161052e9190612b1f565b60405180910390f35b34801561054357600080fd5b5061055e60048036038101906105599190612b77565b611321565b005b34801561056c57600080fd5b5061058760048036038101906105829190613100565b6117ed565b6040516105949190612e5f565b60405180910390f35b3480156105a957600080fd5b506105c460048036038101906105bf91906131eb565b61191a565b6040516105d19190612a74565b60405180910390f35b3480156105e657600080fd5b5061060160048036038101906105fc9190612f0c565b6119ae565b005b60007f80ac58cd000000000000000000000000000000000000000000000000000000007bffffffffffffffffffffffffffffffffffffffffffffffffffffffff1916827bffffffffffffffffffffffffffffffffffffffffffffffffffffffff191614806106ce57507f5b5e139f000000000000000000000000000000000000000000000000000000007bffffffffffffffffffffffffffffffffffffffffffffffffffffffff1916827bffffffffffffffffffffffffffffffffffffffffffffffffffffffff1916145b806106de57506106dd82611a31565b5b9050919050565b6060600080546106f49061325a565b80601f01602080910402602001604051908101604052809291908181526020018280546107209061325a565b801561076d5780601f106107425761010080835404028352916020019161076d565b820191906000526020600020905b81548152906001019060200180831161075057829003601f168201915b5050505050905090565b600061078282611a9b565b6004600083815260200190815260200160002060009054906101000a900473ffffffffffffffffffffffffffffffffffffffff169050919050565b60006107c882610cfa565b90508073ffffffffffffffffffffffffffffffffffffffff168373ffffffffffffffffffffffffffffffffffffffff1603610838576040517f08c379a000000000000000000000000000000000000000000000000000000000815260040161082f906132fd565b60405180910390fd5b8073ffffffffffffffffffffffffffffffffffffffff16610857611ae6565b73ffffffffffffffffffffffffffffffffffffffff161480610886575061088581610880611ae6565b61191a565b5b6108c5576040517f08c379a00000000000000000000000000000000000000000000000000000000081526004016108bc9061338f565b60405180910390fd5b6108cf8383611aee565b505050565b6108e56108df611ae6565b82611ba7565b610924576040517f08c379a000000000000000000000000000000000000000000000000000000000815260040161091b90613421565b60405180910390fd5b61092f838383611c3c565b505050565b61094f83838360405180602001604052806000815250611257565b505050565b600960003373ffffffffffffffffffffffffffffffffffffffff1673ffffffffffffffffffffffffffffffffffffffff16815260200190815260200160002060000160009054906101000a900460ff16156109e4576040517f08c379a00000000000000000000000000000000000000000000000000000000081526004016109db9061348d565b60405180910390fd5b600b54341015610a29576040517f08c379a0000000000000000000000000000000000000000000000000000000008152600401610a209061351f565b60405180910390fd5b60405180606001604052806001151581526020013481526020016000815250600960003373ffffffffffffffffffffffffffffffffffffffff1673ffffffffffffffffffffffffffffffffffffffff16815260200190815260200160002060008201518160000160006101000a81548160ff02191690831515021790555060208201518160010155604082015181600201559050503373ffffffffffffffffffffffffffffffffffffffff167fe29d35093005f4d575e1003753426b57a7f64378ba73332eef9c6ccc2b8decd634604051610b049190612e5f565b60405180910390a2565b610b1782611f35565b610b56576040517f08c379a0000000000000000000000000000000000000000000000000000000008152600401610b4d9061358b565b60405180910390fd5b6008600083815260200190815260200160002060040160009054906101000a900460ff16610bb9576040517f08c379a0000000000000000000000000000000000000000000000000000000008152600401610bb0906135f7565b60405180910390fd5b600960003373ffffffffffffffffffffffffffffffffffffffff1673ffffffffffffffffffffffffffffffffffffffff16815260200190815260200160002060000160009054906101000a900460ff16610c48576040517f08c379a0000000000000000000000000000000000000000000000000000000008152600401610c3f90613663565b60405180910390fd5b60006008600084815260200190815260200160002060040160006101000a81548160ff02191690831515021790555080600860008481526020019081526020016000206005019081610c9a919061382f565b50426008600084815260200190815260200160002060060181905550817f8aeea4f4a7cdbae209a2bcc20214eb8929ff50393c571ff9b1832d8886b9187c8242604051610ce8929190613901565b60405180910390a25050565b600c5481565b600080610d0683611f76565b9050600073ffffffffffffffffffffffffffffffffffffffff168173ffffffffffffffffffffffffffffffffffffffff1603610d77576040517f08c379a0000000000000000000000000000000000000000000000000000000008152600401610d6e9061397d565b60405180910390fd5b80915050919050565b6008602052806000526040600020600091509050806000018054610da39061325a565b80601f0160208091040260200160405190810160405280929190818152602001828054610dcf9061325a565b8015610e1c5780601f10610df157610100808354040283529160200191610e1c565b820191906000526020600020905b815481529060010190602001808311610dff57829003601f168201915b505050505090806001018054610e319061325a565b80601f0160208091040260200160405190810160405280929190818152602001828054610e5d9061325a565b8015610eaa5780601f10610e7f57610100808354040283529160200191610eaa565b820191906000526020600020905b815481529060010190602001808311610e8d57829003601f168201915b505050505090806002018054610ebf9061325a565b80601f0160208091040260200160405190810160405280929190818152602001828054610eeb9061325a565b8015610f385780601f10610f0d57610100808354040283529160200191610f38565b820191906000526020600020905b815481529060010190602001808311610f1b57829003601f168201915b505050505090806003018054610f4d9061325a565b80601f0160208091040260200160405190810160405280929190818152602001828054610f799061325a565b8015610fc65780601f10610f9b57610100808354040283529160200191610fc6565b820191906000526020600020905b815481529060010190602001808311610fa957829003601f168201915b5050505050908060040160009054906101000a900460ff1690806005018054610fee9061325a565b80601f016020809104026020016040519081016040528092919081815260200182805461101a9061325a565b80156110675780601f1061103c57610100808354040283529160200191611067565b820191906000526020600020905b81548152906001019060200180831161104a57829003601f168201915b5050505050908060060154905087565b60008073ffffffffffffffffffffffffffffffffffffffff168273ffffffffffffffffffffffffffffffffffffffff16036110e7576040517f08c379a00000000000000000000000000000000000000000000000000000000081526004016110de90613a0f565b60405180910390fd5b600360008373ffffffffffffffffffffffffffffffffffffffff1673ffffffffffffffffffffffffffffffffffffffff168152602001908152602001600020549050919050565b611136611fb3565b6111406000612031565b565b600b5481565b6000600660009054906101000a900473ffffffffffffffffffffffffffffffffffffffff16905090565b600a5481565b6060600180546111879061325a565b80601f01602080910402602001604051908101604052809291908181526020018280546111b39061325a565b80156112005780601f106111d557610100808354040283529160200191611200565b820191906000526020600020905b8154815290600101906020018083116111e357829003601f168201915b5050505050905090565b61121c611215611ae6565b83836120f7565b5050565b60096020528060005260406000206000915090508060000160009054906101000a900460ff16908060010154908060020154905083565b611268611262611ae6565b83611ba7565b6112a7576040517f08c379a000000000000000000000000000000000000000000000000000000000815260040161129e90613421565b60405180910390fd5b6112b384848484612263565b50505050565b60606112c482611a9b565b60006112ce6122bf565b905060008151116112ee5760405180602001604052806000815250611319565b806112f8846122d6565b604051602001611309929190613a6b565b6040516020818303038152906040525b915050919050565b61132a81611f35565b611369576040517f08c379a00000000000000000000000000000000000000000000000000000000081526004016113609061358b565b60405180910390fd5b6008600082815260200190815260200160002060040160009054906101000a900460ff16156113cd576040517f08c379a00000000000000000000000000000000000000000000000000000000081526004016113c490613adb565b60405180910390fd5b600960003373ffffffffffffffffffffffffffffffffffffffff1673ffffffffffffffffffffffffffffffffffffffff16815260200190815260200160002060000160009054906101000a900460ff1661145c576040517f08c379a000000000000000000000000000000000000000000000000000000000815260040161145390613663565b60405180910390fd5b60006008600083815260200190815260200160002060060154905061148c600a54826123a490919063ffffffff16565b4210156114ce576040517f08c379a00000000000000000000000000000000000000000000000000000000081526004016114c590613b6d565b60405180910390fd5b60006114da42836123ba565b9050600081111561173d5780600960003373ffffffffffffffffffffffffffffffffffffffff1673ffffffffffffffffffffffffffffffffffffffff16815260200190815260200160002060010154101561156a576040517f08c379a000000000000000000000000000000000000000000000000000000000815260040161156190613bff565b60405180910390fd5b6115bf81600960003373ffffffffffffffffffffffffffffffffffffffff1673ffffffffffffffffffffffffffffffffffffffff168152602001908152602001600020600201546123a490919063ffffffff16565b600960003373ffffffffffffffffffffffffffffffffffffffff1673ffffffffffffffffffffffffffffffffffffffff1681526020019081526020016000206002018190555061165a81600960003373ffffffffffffffffffffffffffffffffffffffff1673ffffffffffffffffffffffffffffffffffffffff1681526020019081526020016000206001015461243490919063ffffffff16565b600960003373ffffffffffffffffffffffffffffffffffffffff1673ffffffffffffffffffffffffffffffffffffffff168152602001908152602001600020600101819055503373ffffffffffffffffffffffffffffffffffffffff167f34af8d99a30dafb3157ed162369d603f544a74be3858f8c7ac9e159829589c25826040516116e69190612e5f565b60405180910390a26116f6611148565b73ffffffffffffffffffffffffffffffffffffffff166108fc829081150290604051600060405180830381858888f1935050505015801561173b573d6000803e3d6000fd5b505b60016008600085815260200190815260200160002060040160006101000a81548160ff0219169083151502179055506040518060200160405280600081525060086000858152602001908152602001600020600501908161179e919061382f565b5060006008600085815260200190815260200160002060060181905550827f70495d83ba5ba5c54086a9955a8c68fa91f4439242054fbe5a64b3d55300691760405160405180910390a2505050565b60006117f7611fb3565b611801600761244a565b600061180d6007612460565b90506040518060e00160405280878152602001868152602001858152602001848152602001600115158152602001604051806020016040528060008152508152602001600081525060086000838152602001908152602001600020600082015181600001908161187d919061382f565b506020820151816001019081611893919061382f565b5060408201518160020190816118a9919061382f565b5060608201518160030190816118bf919061382f565b5060808201518160040160006101000a81548160ff02191690831515021790555060a08201518160050190816118f5919061382f565b5060c0820151816006015590505061190d878261246e565b8091505095945050505050565b6000600560008473ffffffffffffffffffffffffffffffffffffffff1673ffffffffffffffffffffffffffffffffffffffff16815260200190815260200160002060008373ffffffffffffffffffffffffffffffffffffffff1673ffffffffffffffffffffffffffffffffffffffff16815260200190815260200160002060009054906101000a900460ff16905092915050565b6119b6611fb3565b600073ffffffffffffffffffffffffffffffffffffffff168173ffffffffffffffffffffffffffffffffffffffff1603611a25576040517f08c379a0000000000000000000000000000000000000000000000000000000008152600401611a1c90613c91565b60405180910390fd5b611a2e81612031565b50565b60007f01ffc9a7000000000000000000000000000000000000000000000000000000007bffffffffffffffffffffffffffffffffffffffffffffffffffffffff1916827bffffffffffffffffffffffffffffffffffffffffffffffffffffffff1916149050919050565b611aa481611f35565b611ae3576040517f08c379a0000000000000000000000000000000000000000000000000000000008152600401611ada9061397d565b60405180910390fd5b50565b600033905090565b816004600083815260200190815260200160002060006101000a81548173ffffffffffffffffffffffffffffffffffffffff021916908373ffffffffffffffffffffffffffffffffffffffff160217905550808273ffffffffffffffffffffffffffffffffffffffff16611b6183610cfa565b73ffffffffffffffffffffffffffffffffffffffff167f8c5be1e5ebec7d5bd14f71427d1e84f3dd0314c0f7b2291e5b200ac8c7c3b92560405160405180910390a45050565b600080611bb383610cfa565b90508073ffffffffffffffffffffffffffffffffffffffff168473ffffffffffffffffffffffffffffffffffffffff161480611bf55750611bf4818561191a565b5b80611c3357508373ffffffffffffffffffffffffffffffffffffffff16611c1b84610777565b73ffffffffffffffffffffffffffffffffffffffff16145b91505092915050565b8273ffffffffffffffffffffffffffffffffffffffff16611c5c82610cfa565b73ffffffffffffffffffffffffffffffffffffffff1614611cb2576040517f08c379a0000000000000000000000000000000000000000000000000000000008152600401611ca990613d23565b60405180910390fd5b600073ffffffffffffffffffffffffffffffffffffffff168273ffffffffffffffffffffffffffffffffffffffff1603611d21576040517f08c379a0000000000000000000000000000000000000000000000000000000008152600401611d1890613db5565b60405180910390fd5b611d2e838383600161268b565b8273ffffffffffffffffffffffffffffffffffffffff16611d4e82610cfa565b73ffffffffffffffffffffffffffffffffffffffff1614611da4576040517f08c379a0000000000000000000000000000000000000000000000000000000008152600401611d9b90613d23565b60405180910390fd5b6004600082815260200190815260200160002060006101000a81549073ffffffffffffffffffffffffffffffffffffffff02191690556001600360008573ffffffffffffffffffffffffffffffffffffffff1673ffffffffffffffffffffffffffffffffffffffff168152602001908152602001600020600082825403925050819055506001600360008473ffffffffffffffffffffffffffffffffffffffff1673ffffffffffffffffffffffffffffffffffffffff16815260200190815260200160002060008282540192505081905550816002600083815260200190815260200160002060006101000a81548173ffffffffffffffffffffffffffffffffffffffff021916908373ffffffffffffffffffffffffffffffffffffffff160217905550808273ffffffffffffffffffffffffffffffffffffffff168473ffffffffffffffffffffffffffffffffffffffff167fddf252ad1be2c89b69c2b068fc378daa952ba7f163c4a11628f55a4df523b3ef60405160405180910390a4611f308383836001612691565b505050565b60008073ffffffffffffffffffffffffffffffffffffffff16611f5783611f76565b73ffffffffffffffffffffffffffffffffffffffff1614159050919050565b60006002600083815260200190815260200160002060009054906101000a900473ffffffffffffffffffffffffffffffffffffffff169050919050565b611fbb611ae6565b73ffffffffffffffffffffffffffffffffffffffff16611fd9611148565b73ffffffffffffffffffffffffffffffffffffffff161461202f576040517f08c379a000000000000000000000000000000000000000000000000000000000815260040161202690613e21565b60405180910390fd5b565b6000600660009054906101000a900473ffffffffffffffffffffffffffffffffffffffff16905081600660006101000a81548173ffffffffffffffffffffffffffffffffffffffff021916908373ffffffffffffffffffffffffffffffffffffffff1602179055508173ffffffffffffffffffffffffffffffffffffffff168173ffffffffffffffffffffffffffffffffffffffff167f8be0079c531659141344cd1fd0a4f28419497f9722a3daafe3b4186f6b6457e060405160405180910390a35050565b8173ffffffffffffffffffffffffffffffffffffffff168373ffffffffffffffffffffffffffffffffffffffff1603612165576040517f08c379a000000000000000000000000000000000000000000000000000000000815260040161215c90613e8d565b60405180910390fd5b80600560008573ffffffffffffffffffffffffffffffffffffffff1673ffffffffffffffffffffffffffffffffffffffff16815260200190815260200160002060008473ffffffffffffffffffffffffffffffffffffffff1673ffffffffffffffffffffffffffffffffffffffff16815260200190815260200160002060006101000a81548160ff0219169083151502179055508173ffffffffffffffffffffffffffffffffffffffff168373ffffffffffffffffffffffffffffffffffffffff167f17307eab39ab6107e8899845ad3d59bd9653f200f220920489ca2b5937696c31836040516122569190612a74565b60405180910390a3505050565b61226e848484611c3c565b61227a84848484612697565b6122b9576040517f08c379a00000000000000000000000000000000000000000000000000000000081526004016122b090613f1f565b60405180910390fd5b50505050565b606060405180602001604052806000815250905090565b6060600060016122e58461281e565b01905060008167ffffffffffffffff81111561230457612303612cc9565b5b6040519080825280601f01601f1916602001820160405280156123365781602001600182028036833780820191505090505b509050600082602001820190505b600115612399578080600190039150507f3031323334353637383961626364656600000000000000000000000000000000600a86061a8153600a858161238d5761238c613f3f565b5b04945060008503612344575b819350505050919050565b600081836123b29190613f9d565b905092915050565b6000806123d0838561243490919063ffffffff16565b905060006123ea620151808361297190919063ffffffff16565b90506000600e82111561242857600061240d600e8461243490919063ffffffff16565b9050612424600c548261298790919063ffffffff16565b9150505b80935050505092915050565b600081836124429190613fd1565b905092915050565b6001816000016000828254019250508190555050565b600081600001549050919050565b600073ffffffffffffffffffffffffffffffffffffffff168273ffffffffffffffffffffffffffffffffffffffff16036124dd576040517f08c379a00000000000000000000000000000000000000000000000000000000081526004016124d490614051565b60405180910390fd5b6124e681611f35565b15612526576040517f08c379a000000000000000000000000000000000000000000000000000000000815260040161251d906140bd565b60405180910390fd5b61253460008383600161268b565b61253d81611f35565b1561257d576040517f08c379a0000000000000000000000000000000000000000000000000000000008152600401612574906140bd565b60405180910390fd5b6001600360008473ffffffffffffffffffffffffffffffffffffffff1673ffffffffffffffffffffffffffffffffffffffff16815260200190815260200160002060008282540192505081905550816002600083815260200190815260200160002060006101000a81548173ffffffffffffffffffffffffffffffffffffffff021916908373ffffffffffffffffffffffffffffffffffffffff160217905550808273ffffffffffffffffffffffffffffffffffffffff16600073ffffffffffffffffffffffffffffffffffffffff167fddf252ad1be2c89b69c2b068fc378daa952ba7f163c4a11628f55a4df523b3ef60405160405180910390a4612687600083836001612691565b5050565b50505050565b50505050565b60006126b88473ffffffffffffffffffffffffffffffffffffffff1661299d565b15612811578373ffffffffffffffffffffffffffffffffffffffff1663150b7a026126e1611ae6565b8786866040518563ffffffff1660e01b81526004016127039493929190614132565b6020604051808303816000875af192505050801561273f57506040513d601f19601f8201168201806040525081019061273c9190614193565b60015b6127c1573d806000811461276f576040519150601f19603f3d011682016040523d82523d6000602084013e612774565b606091505b5060008151036127b9576040517f08c379a00000000000000000000000000000000000000000000000000000000081526004016127b090613f1f565b60405180910390fd5b805181602001fd5b63150b7a0260e01b7bffffffffffffffffffffffffffffffffffffffffffffffffffffffff1916817bffffffffffffffffffffffffffffffffffffffffffffffffffffffff191614915050612816565b600190505b949350505050565b600080600090507a184f03e93ff9f4daa797ed6e38ed64bf6a1f010000000000000000831061287c577a184f03e93ff9f4daa797ed6e38ed64bf6a1f010000000000000000838161287257612871613f3f565b5b0492506040810190505b6d04ee2d6d415b85acef810000000083106128b9576d04ee2d6d415b85acef810000000083816128af576128ae613f3f565b5b0492506020810190505b662386f26fc1000083106128e857662386f26fc1000083816128de576128dd613f3f565b5b0492506010810190505b6305f5e1008310612911576305f5e100838161290757612906613f3f565b5b0492506008810190505b612710831061293657612710838161292c5761292b613f3f565b5b0492506004810190505b60648310612959576064838161294f5761294e613f3f565b5b0492506002810190505b600a8310612968576001810190505b80915050919050565b6000818361297f91906141c0565b905092915050565b6000818361299591906141f1565b905092915050565b6000808273ffffffffffffffffffffffffffffffffffffffff163b119050919050565b6000604051905090565b600080fd5b600080fd5b60007fffffffff0000000000000000000000000000000000000000000000000000000082169050919050565b612a09816129d4565b8114612a1457600080fd5b50565b600081359050612a2681612a00565b92915050565b600060208284031215612a4257612a416129ca565b5b6000612a5084828501612a17565b91505092915050565b60008115159050919050565b612a6e81612a59565b82525050565b6000602082019050612a896000830184612a65565b92915050565b600081519050919050565b600082825260208201905092915050565b60005b83811015612ac9578082015181840152602081019050612aae565b60008484015250505050565b6000601f19601f8301169050919050565b6000612af182612a8f565b612afb8185612a9a565b9350612b0b818560208601612aab565b612b1481612ad5565b840191505092915050565b60006020820190508181036000830152612b398184612ae6565b905092915050565b6000819050919050565b612b5481612b41565b8114612b5f57600080fd5b50565b600081359050612b7181612b4b565b92915050565b600060208284031215612b8d57612b8c6129ca565b5b6000612b9b84828501612b62565b91505092915050565b600073ffffffffffffffffffffffffffffffffffffffff82169050919050565b6000612bcf82612ba4565b9050919050565b612bdf81612bc4565b82525050565b6000602082019050612bfa6000830184612bd6565b92915050565b612c0981612bc4565b8114612c1457600080fd5b50565b600081359050612c2681612c00565b92915050565b60008060408385031215612c4357612c426129ca565b5b6000612c5185828601612c17565b9250506020612c6285828601612b62565b9150509250929050565b600080600060608486031215612c8557612c846129ca565b5b6000612c9386828701612c17565b9350506020612ca486828701612c17565b9250506040612cb586828701612b62565b9150509250925092565b600080fd5b600080fd5b7f4e487b7100000000000000000000000000000000000000000000000000000000600052604160045260246000fd5b612d0182612ad5565b810181811067ffffffffffffffff82111715612d2057612d1f612cc9565b5b80604052505050565b6000612d336129c0565b9050612d3f8282612cf8565b919050565b600067ffffffffffffffff821115612d5f57612d5e612cc9565b5b612d6882612ad5565b9050602081019050919050565b82818337600083830152505050565b6000612d97612d9284612d44565b612d29565b905082815260208101848484011115612db357612db2612cc4565b5b612dbe848285612d75565b509392505050565b600082601f830112612ddb57612dda612cbf565b5b8135612deb848260208601612d84565b91505092915050565b60008060408385031215612e0b57612e0a6129ca565b5b6000612e1985828601612b62565b925050602083013567ffffffffffffffff811115612e3a57612e396129cf565b5b612e4685828601612dc6565b9150509250929050565b612e5981612b41565b82525050565b6000602082019050612e746000830184612e50565b92915050565b600060e0820190508181036000830152612e94818a612ae6565b90508181036020830152612ea88189612ae6565b90508181036040830152612ebc8188612ae6565b90508181036060830152612ed08187612ae6565b9050612edf6080830186612a65565b81810360a0830152612ef18185612ae6565b9050612f0060c0830184612e50565b98975050505050505050565b600060208284031215612f2257612f216129ca565b5b6000612f3084828501612c17565b91505092915050565b612f4281612a59565b8114612f4d57600080fd5b50565b600081359050612f5f81612f39565b92915050565b60008060408385031215612f7c57612f7b6129ca565b5b6000612f8a85828601612c17565b9250506020612f9b85828601612f50565b9150509250929050565b6000606082019050612fba6000830186612a65565b612fc76020830185612e50565b612fd46040830184612e50565b949350505050565b600067ffffffffffffffff821115612ff757612ff6612cc9565b5b61300082612ad5565b9050602081019050919050565b600061302061301b84612fdc565b612d29565b90508281526020810184848401111561303c5761303b612cc4565b5b613047848285612d75565b509392505050565b600082601f83011261306457613063612cbf565b5b813561307484826020860161300d565b91505092915050565b60008060008060808587031215613097576130966129ca565b5b60006130a587828801612c17565b94505060206130b687828801612c17565b93505060406130c787828801612b62565b925050606085013567ffffffffffffffff8111156130e8576130e76129cf565b5b6130f48782880161304f565b91505092959194509250565b600080600080600060a0868803121561311c5761311b6129ca565b5b600061312a88828901612c17565b955050602086013567ffffffffffffffff81111561314b5761314a6129cf565b5b61315788828901612dc6565b945050604086013567ffffffffffffffff811115613178576131776129cf565b5b61318488828901612dc6565b935050606086013567ffffffffffffffff8111156131a5576131a46129cf565b5b6131b188828901612dc6565b925050608086013567ffffffffffffffff8111156131d2576131d16129cf565b5b6131de88828901612dc6565b9150509295509295909350565b60008060408385031215613202576132016129ca565b5b600061321085828601612c17565b925050602061322185828601612c17565b9150509250929050565b7f4e487b7100000000000000000000000000000000000000000000000000000000600052602260045260246000fd5b6000600282049050600182168061327257607f821691505b6020821081036132855761328461322b565b5b50919050565b7f4552433732313a20617070726f76616c20746f2063757272656e74206f776e6560008201527f7200000000000000000000000000000000000000000000000000000000000000602082015250565b60006132e7602183612a9a565b91506132f28261328b565b604082019050919050565b60006020820190508181036000830152613316816132da565b9050919050565b7f4552433732313a20617070726f76652063616c6c6572206973206e6f7420746f60008201527f6b656e206f776e6572206f7220617070726f76656420666f7220616c6c000000602082015250565b6000613379603d83612a9a565b91506133848261331d565b604082019050919050565b600060208201905081810360008301526133a88161336c565b9050919050565b7f4552433732313a2063616c6c6572206973206e6f7420746f6b656e206f776e6560008201527f72206f7220617070726f76656400000000000000000000000000000000000000602082015250565b600061340b602d83612a9a565b9150613416826133af565b604082019050919050565b6000602082019050818103600083015261343a816133fe565b9050919050565b7f5573657220697320616c72656164792072656769737465726564000000000000600082015250565b6000613477601a83612a9a565b915061348282613441565b602082019050919050565b600060208201905081810360008301526134a68161346a565b9050919050565b7f496e73756666696369656e74207365637572697479206465706f73697420616d60008201527f6f756e7400000000000000000000000000000000000000000000000000000000602082015250565b6000613509602483612a9a565b9150613514826134ad565b604082019050919050565b60006020820190508181036000830152613538816134fc565b9050919050565b7f426f6f6b20646f6573206e6f7420657869737400000000000000000000000000600082015250565b6000613575601383612a9a565b91506135808261353f565b602082019050919050565b600060208201905081810360008301526135a481613568565b9050919050565b7f426f6f6b206973206e6f7420617661696c61626c650000000000000000000000600082015250565b60006135e1601583612a9a565b91506135ec826135ab565b602082019050919050565b60006020820190508181036000830152613610816135d4565b9050919050565b7f55736572206973206e6f74207265676973746572656400000000000000000000600082015250565b600061364d601683612a9a565b915061365882613617565b602082019050919050565b6000602082019050818103600083015261367c81613640565b9050919050565b60008190508160005260206000209050919050565b60006020601f8301049050919050565b600082821b905092915050565b6000600883026136e57fffffffffffffffffffffffffffffffffffffffffffffffffffffffffffffffff826136a8565b6136ef86836136a8565b95508019841693508086168417925050509392505050565b6000819050919050565b600061372c61372761372284612b41565b613707565b612b41565b9050919050565b6000819050919050565b61374683613711565b61375a61375282613733565b8484546136b5565b825550505050565b600090565b61376f613762565b61377a81848461373d565b505050565b5b8181101561379e57613793600082613767565b600181019050613780565b5050565b601f8211156137e3576137b481613683565b6137bd84613698565b810160208510156137cc578190505b6137e06137d885613698565b83018261377f565b50505b505050565b600082821c905092915050565b6000613806600019846008026137e8565b1980831691505092915050565b600061381f83836137f5565b9150826002028217905092915050565b61383882612a8f565b67ffffffffffffffff81111561385157613850612cc9565b5b61385b825461325a565b6138668282856137a2565b600060209050601f8311600181146138995760008415613887578287015190505b6138918582613813565b8655506138f9565b601f1984166138a786613683565b60005b828110156138cf578489015182556001820191506020850194506020810190506138aa565b868310156138ec57848901516138e8601f8916826137f5565b8355505b6001600288020188555050505b505050505050565b6000604082019050818103600083015261391b8185612ae6565b905061392a6020830184612e50565b9392505050565b7f4552433732313a20696e76616c696420746f6b656e2049440000000000000000600082015250565b6000613967601883612a9a565b915061397282613931565b602082019050919050565b600060208201905081810360008301526139968161395a565b9050919050565b7f4552433732313a2061646472657373207a65726f206973206e6f74206120766160008201527f6c6964206f776e65720000000000000000000000000000000000000000000000602082015250565b60006139f9602983612a9a565b9150613a048261399d565b604082019050919050565b60006020820190508181036000830152613a28816139ec565b9050919050565b600081905092915050565b6000613a4582612a8f565b613a4f8185613a2f565b9350613a5f818560208601612aab565b80840191505092915050565b6000613a778285613a3a565b9150613a838284613a3a565b91508190509392505050565b7f426f6f6b20697320616c726561647920617661696c61626c6500000000000000600082015250565b6000613ac5601983612a9a565b9150613ad082613a8f565b602082019050919050565b60006020820190508181036000830152613af481613ab8565b9050919050565b7f426f6f6b2063616e6e6f742062652072657475726e6564206265666f7265207460008201527f686520626f72726f77206475726174696f6e0000000000000000000000000000602082015250565b6000613b57603283612a9a565b9150613b6282613afb565b604082019050919050565b60006020820190508181036000830152613b8681613b4a565b9050919050565b7f496e73756666696369656e74207365637572697479206465706f73697420666f60008201527f72207468652066696e6500000000000000000000000000000000000000000000602082015250565b6000613be9602a83612a9a565b9150613bf482613b8d565b604082019050919050565b60006020820190508181036000830152613c1881613bdc565b9050919050565b7f4f776e61626c653a206e6577206f776e657220697320746865207a65726f206160008201527f6464726573730000000000000000000000000000000000000000000000000000602082015250565b6000613c7b602683612a9a565b9150613c8682613c1f565b604082019050919050565b60006020820190508181036000830152613caa81613c6e565b9050919050565b7f4552433732313a207472616e736665722066726f6d20696e636f72726563742060008201527f6f776e6572000000000000000000000000000000000000000000000000000000602082015250565b6000613d0d602583612a9a565b9150613d1882613cb1565b604082019050919050565b60006020820190508181036000830152613d3c81613d00565b9050919050565b7f4552433732313a207472616e7366657220746f20746865207a65726f2061646460008201527f7265737300000000000000000000000000000000000000000000000000000000602082015250565b6000613d9f602483612a9a565b9150613daa82613d43565b604082019050919050565b60006020820190508181036000830152613dce81613d92565b9050919050565b7f4f776e61626c653a2063616c6c6572206973206e6f7420746865206f776e6572600082015250565b6000613e0b602083612a9a565b9150613e1682613dd5565b602082019050919050565b60006020820190508181036000830152613e3a81613dfe565b9050919050565b7f4552433732313a20617070726f766520746f2063616c6c657200000000000000600082015250565b6000613e77601983612a9a565b9150613e8282613e41565b602082019050919050565b60006020820190508181036000830152613ea681613e6a565b9050919050565b7f4552433732313a207472616e7366657220746f206e6f6e20455243373231526560008201527f63656976657220696d706c656d656e7465720000000000000000000000000000602082015250565b6000613f09603283612a9a565b9150613f1482613ead565b604082019050919050565b60006020820190508181036000830152613f3881613efc565b9050919050565b7f4e487b7100000000000000000000000000000000000000000000000000000000600052601260045260246000fd5b7f4e487b7100000000000000000000000000000000000000000000000000000000600052601160045260246000fd5b6000613fa882612b41565b9150613fb383612b41565b9250828201905080821115613fcb57613fca613f6e565b5b92915050565b6000613fdc82612b41565b9150613fe783612b41565b9250828203905081811115613fff57613ffe613f6e565b5b92915050565b7f4552433732313a206d696e7420746f20746865207a65726f2061646472657373600082015250565b600061403b602083612a9a565b915061404682614005565b602082019050919050565b6000602082019050818103600083015261406a8161402e565b9050919050565b7f4552433732313a20746f6b656e20616c7265616479206d696e74656400000000600082015250565b60006140a7601c83612a9a565b91506140b282614071565b602082019050919050565b600060208201905081810360008301526140d68161409a565b9050919050565b600081519050919050565b600082825260208201905092915050565b6000614104826140dd565b61410e81856140e8565b935061411e818560208601612aab565b61412781612ad5565b840191505092915050565b60006080820190506141476000830187612bd6565b6141546020830186612bd6565b6141616040830185612e50565b818103606083015261417381846140f9565b905095945050505050565b60008151905061418d81612a00565b92915050565b6000602082840312156141a9576141a86129ca565b5b60006141b78482850161417e565b91505092915050565b60006141cb82612b41565b91506141d683612b41565b9250826141e6576141e5613f3f565b5b828204905092915050565b60006141fc82612b41565b915061420783612b41565b925082820261421581612b41565b9150828204841483151761422c5761422b613f6e565b5b509291505056fea2646970667358221220a7901a1236329b4946aa5ac00f14a2f1fb262659281bdf32c76d46bf1b1a97a564736f6c63430008130033",
  "immutableReferences": {},
  "source": "// SPDX-License-Identifier: MIT\n\npragma solidity ^0.8.0;\n\nimport \"@openzeppelin/contracts/token/ERC721/ERC721.sol\";\nimport \"@openzeppelin/contracts/access/Ownable.sol\";\nimport \"@openzeppelin/contracts/utils/Counters.sol\";\nimport \"@openzeppelin/contracts/utils/math/SafeMath.sol\";\n\ncontract LibraryBooks is ERC721, Ownable {\n    using Counters for Counters.Counter;\n    using SafeMath for uint256;\n\n    Counters.Counter private _tokenIds;\n\n    struct Book {\n        string title;\n        string author;\n        string publisher;\n        string isbn;\n        bool isAvailable;\n        string borrowerRollNo;\n        uint256 borrowTimestamp;\n    }\n\n    struct User {\n        bool isRegistered;\n        uint256 securityDeposit;\n        uint256 fineAmount;\n    }\n\n    mapping(uint256 => Book) public books;\n    mapping(address => User) public users;\n\n    uint256 public maxBorrowDuration;\n    uint256 public securityDepositAmount;\n    uint256 public fineRate;\n\n    event BookBorrowed(uint256 indexed tokenId, string borrowerRollNo, uint256 borrowTimestamp);\n    event BookReturned(uint256 indexed tokenId);\n    event UserRegistered(address indexed user, uint256 securityDeposit);\n    event FinePaid(address indexed user, uint256 amount);\n\n    constructor() ERC721(\"Library Books\", \"LBK\") {\n        maxBorrowDuration = 14 days;\n        securityDepositAmount = 0.1 ether;\n        fineRate = 0.00001 ether;\n    }\n\n    function mintBook(\n        address recipient,\n        string memory title,\n        string memory author,\n        string memory publisher,\n        string memory isbn\n    ) public onlyOwner returns (uint256) {\n        _tokenIds.increment();\n        uint256 newTokenId = _tokenIds.current();\n\n        books[newTokenId] = Book(title, author, publisher, isbn, true, \"\", 0);\n        _mint(recipient, newTokenId);\n\n        return newTokenId;\n    }\n\n\n    function registerUser() public payable {\n        require(!users[msg.sender].isRegistered, \"User is already registered\");\n        require(msg.value >= securityDepositAmount, \"Insufficient security deposit amount\");\n\n        users[msg.sender] = User(true, msg.value, 0);\n\n        emit UserRegistered(msg.sender, msg.value);\n    }\n\n    function borrowBook(uint256 tokenId, string memory borrowerRollNo) public {\n        require(_exists(tokenId), \"Book does not exist\");\n        require(books[tokenId].isAvailable, \"Book is not available\");\n        require(users[msg.sender].isRegistered, \"User is not registered\");\n\n        books[tokenId].isAvailable = false;\n        books[tokenId].borrowerRollNo = borrowerRollNo;\n        books[tokenId].borrowTimestamp = block.timestamp;\n\n        emit BookBorrowed(tokenId, borrowerRollNo, block.timestamp);\n    }\n\n\n    function calculateFine(uint256 returnTimestamp, uint256 borrowTimestamp) internal view returns (uint256) {\n    uint256 borrowDuration = returnTimestamp.sub(borrowTimestamp);\n    uint256 overdueDays = borrowDuration.div(1 days); // Assuming 1 day is the unit for calculating fines\n    uint256 fineAmount = 0;\n\n    if (overdueDays > 14) {\n        uint256 extraDays = overdueDays.sub(14);\n        fineAmount = extraDays.mul(fineRate);\n    }\n\n    return fineAmount;\n}\nfunction returnBook(uint256 tokenId) public {\n    require(_exists(tokenId), \"Book does not exist\");\n    require(!books[tokenId].isAvailable, \"Book is already available\");\n    require(users[msg.sender].isRegistered, \"User is not registered\");\n\n    uint256 borrowTime = books[tokenId].borrowTimestamp;\n    require(block.timestamp >= borrowTime.add(maxBorrowDuration), \"Book cannot be returned before the borrow duration\");\n\n    uint256 fineAmount = calculateFine(block.timestamp, borrowTime);\n\n    // Charge fine if applicable\n    if (fineAmount > 0) {\n        require(users[msg.sender].securityDeposit >= fineAmount, \"Insufficient security deposit for the fine\");\n        users[msg.sender].fineAmount = users[msg.sender].fineAmount.add(fineAmount);\n        users[msg.sender].securityDeposit = users[msg.sender].securityDeposit.sub(fineAmount);\n        emit FinePaid(msg.sender, fineAmount);\n\n        // Transfer fine to contract owner\n        payable(owner()).transfer(fineAmount);\n    }\n\n    books[tokenId].isAvailable = true;\n    books[tokenId].borrowerRollNo = \"\";\n    books[tokenId].borrowTimestamp = 0;\n\n    emit BookReturned(tokenId);\n}\n\n\n\n}\n",
  "sourcePath": "/home/yogesh/Documents/GitHub/Lib/contracts/LibraryBooks.sol",
  "compiler": {
    "name": "solc",
    "version": "0.8.19+commit.7dd6d404.Emscripten.clang"
  },
  "schemaVersion": "3.4.13",
  "updatedAt": "2023-05-20T06:24:56.825Z",
  "devdoc": {
    "events": {
      "Approval(address,address,uint256)": {
        "details": "Emitted when `owner` enables `approved` to manage the `tokenId` token."
      },
      "ApprovalForAll(address,address,bool)": {
        "details": "Emitted when `owner` enables or disables (`approved`) `operator` to manage all of its assets."
      },
      "Transfer(address,address,uint256)": {
        "details": "Emitted when `tokenId` token is transferred from `from` to `to`."
      }
    },
    "kind": "dev",
    "methods": {
      "approve(address,uint256)": {
        "details": "See {IERC721-approve}."
      },
      "balanceOf(address)": {
        "details": "See {IERC721-balanceOf}."
      },
      "getApproved(uint256)": {
        "details": "See {IERC721-getApproved}."
      },
      "isApprovedForAll(address,address)": {
        "details": "See {IERC721-isApprovedForAll}."
      },
      "name()": {
        "details": "See {IERC721Metadata-name}."
      },
      "owner()": {
        "details": "Returns the address of the current owner."
      },
      "ownerOf(uint256)": {
        "details": "See {IERC721-ownerOf}."
      },
      "renounceOwnership()": {
        "details": "Leaves the contract without owner. It will not be possible to call `onlyOwner` functions anymore. Can only be called by the current owner. NOTE: Renouncing ownership will leave the contract without an owner, thereby removing any functionality that is only available to the owner."
      },
      "safeTransferFrom(address,address,uint256)": {
        "details": "See {IERC721-safeTransferFrom}."
      },
      "safeTransferFrom(address,address,uint256,bytes)": {
        "details": "See {IERC721-safeTransferFrom}."
      },
      "setApprovalForAll(address,bool)": {
        "details": "See {IERC721-setApprovalForAll}."
      },
      "supportsInterface(bytes4)": {
        "details": "See {IERC165-supportsInterface}."
      },
      "symbol()": {
        "details": "See {IERC721Metadata-symbol}."
      },
      "tokenURI(uint256)": {
        "details": "See {IERC721Metadata-tokenURI}."
      },
      "transferFrom(address,address,uint256)": {
        "details": "See {IERC721-transferFrom}."
      },
      "transferOwnership(address)": {
        "details": "Transfers ownership of the contract to a new account (`newOwner`). Can only be called by the current owner."
      }
    },
    "version": 1
  },
  "userdoc": {
    "kind": "user",
    "methods": {},
    "version": 1
  }
}