{
  "contractName": "LibraryBooks",
  "abi": [
    {
      "inputs": [],
      "stateMutability": "nonpayable",
      "type": "constructor"
    },
    {
      "anonymous": false,
      "inputs": [
        {
          "indexed": true,
          "internalType": "address",
          "name": "owner",
          "type": "address"
        },
        {
          "indexed": true,
          "internalType": "address",
          "name": "approved",
          "type": "address"
        },
        {
          "indexed": true,
          "internalType": "uint256",
          "name": "tokenId",
          "type": "uint256"
        }
      ],
      "name": "Approval",
      "type": "event"
    },
    {
      "anonymous": false,
      "inputs": [
        {
          "indexed": true,
          "internalType": "address",
          "name": "owner",
          "type": "address"
        },
        {
          "indexed": true,
          "internalType": "address",
          "name": "operator",
          "type": "address"
        },
        {
          "indexed": false,
          "internalType": "bool",
          "name": "approved",
          "type": "bool"
        }
      ],
      "name": "ApprovalForAll",
      "type": "event"
    },
    {
      "anonymous": false,
      "inputs": [
        {
          "indexed": true,
          "internalType": "address",
          "name": "previousOwner",
          "type": "address"
        },
        {
          "indexed": true,
          "internalType": "address",
          "name": "newOwner",
          "type": "address"
        }
      ],
      "name": "OwnershipTransferred",
      "type": "event"
    },
    {
      "anonymous": false,
      "inputs": [
        {
          "indexed": true,
          "internalType": "address",
          "name": "from",
          "type": "address"
        },
        {
          "indexed": true,
          "internalType": "address",
          "name": "to",
          "type": "address"
        },
        {
          "indexed": true,
          "internalType": "uint256",
          "name": "tokenId",
          "type": "uint256"
        }
      ],
      "name": "Transfer",
      "type": "event"
    },
    {
      "inputs": [
        {
          "internalType": "uint256",
          "name": "",
          "type": "uint256"
        }
      ],
      "name": "_books",
      "outputs": [
        {
          "internalType": "uint256",
          "name": "id",
          "type": "uint256"
        },
        {
          "internalType": "string",
          "name": "title",
          "type": "string"
        },
        {
          "internalType": "string",
          "name": "author",
          "type": "string"
        },
        {
          "internalType": "string",
          "name": "publisher",
          "type": "string"
        },
        {
          "internalType": "string",
          "name": "isbn",
          "type": "string"
        },
        {
          "internalType": "address",
          "name": "borrowerAddress",
          "type": "address"
        },
        {
          "internalType": "bool",
          "name": "isAvailable",
          "type": "bool"
        }
      ],
      "stateMutability": "view",
      "type": "function",
      "constant": true
    },
    {
      "inputs": [
        {
          "internalType": "address",
          "name": "",
          "type": "address"
        }
      ],
      "name": "_users",
      "outputs": [
        {
          "internalType": "string",
          "name": "name",
          "type": "string"
        },
        {
          "internalType": "string",
          "name": "email",
          "type": "string"
        },
        {
          "internalType": "string",
          "name": "contactNo",
          "type": "string"
        },
        {
          "internalType": "string",
          "name": "gender",
          "type": "string"
        },
        {
          "internalType": "string",
          "name": "idType",
          "type": "string"
        },
        {
          "internalType": "string",
          "name": "idNo",
          "type": "string"
        },
        {
          "internalType": "address",
          "name": "userAddress",
          "type": "address"
        },
        {
          "internalType": "bool",
          "name": "isRegistered",
          "type": "bool"
        }
      ],
      "stateMutability": "view",
      "type": "function",
      "constant": true
    },
    {
      "inputs": [
        {
          "internalType": "address",
          "name": "to",
          "type": "address"
        },
        {
          "internalType": "uint256",
          "name": "tokenId",
          "type": "uint256"
        }
      ],
      "name": "approve",
      "outputs": [],
      "stateMutability": "nonpayable",
      "type": "function"
    },
    {
      "inputs": [
        {
          "internalType": "address",
          "name": "owner",
          "type": "address"
        }
      ],
      "name": "balanceOf",
      "outputs": [
        {
          "internalType": "uint256",
          "name": "",
          "type": "uint256"
        }
      ],
      "stateMutability": "view",
      "type": "function",
      "constant": true
    },
    {
      "inputs": [
        {
          "internalType": "uint256",
          "name": "tokenId",
          "type": "uint256"
        }
      ],
      "name": "getApproved",
      "outputs": [
        {
          "internalType": "address",
          "name": "",
          "type": "address"
        }
      ],
      "stateMutability": "view",
      "type": "function",
      "constant": true
    },
    {
      "inputs": [
        {
          "internalType": "address",
          "name": "owner",
          "type": "address"
        },
        {
          "internalType": "address",
          "name": "operator",
          "type": "address"
        }
      ],
      "name": "isApprovedForAll",
      "outputs": [
        {
          "internalType": "bool",
          "name": "",
          "type": "bool"
        }
      ],
      "stateMutability": "view",
      "type": "function",
      "constant": true
    },
    {
      "inputs": [],
      "name": "librarian",
      "outputs": [
        {
          "internalType": "address",
          "name": "",
          "type": "address"
        }
      ],
      "stateMutability": "view",
      "type": "function",
      "constant": true
    },
    {
      "inputs": [],
      "name": "name",
      "outputs": [
        {
          "internalType": "string",
          "name": "",
          "type": "string"
        }
      ],
      "stateMutability": "view",
      "type": "function",
      "constant": true
    },
    {
      "inputs": [],
      "name": "owner",
      "outputs": [
        {
          "internalType": "address",
          "name": "",
          "type": "address"
        }
      ],
      "stateMutability": "view",
      "type": "function",
      "constant": true
    },
    {
      "inputs": [
        {
          "internalType": "uint256",
          "name": "tokenId",
          "type": "uint256"
        }
      ],
      "name": "ownerOf",
      "outputs": [
        {
          "internalType": "address",
          "name": "",
          "type": "address"
        }
      ],
      "stateMutability": "view",
      "type": "function",
      "constant": true
    },
    {
      "inputs": [],
      "name": "renounceOwnership",
      "outputs": [],
      "stateMutability": "nonpayable",
      "type": "function"
    },
    {
      "inputs": [
        {
          "internalType": "address",
          "name": "from",
          "type": "address"
        },
        {
          "internalType": "address",
          "name": "to",
          "type": "address"
        },
        {
          "internalType": "uint256",
          "name": "tokenId",
          "type": "uint256"
        }
      ],
      "name": "safeTransferFrom",
      "outputs": [],
      "stateMutability": "nonpayable",
      "type": "function"
    },
    {
      "inputs": [
        {
          "internalType": "address",
          "name": "from",
          "type": "address"
        },
        {
          "internalType": "address",
          "name": "to",
          "type": "address"
        },
        {
          "internalType": "uint256",
          "name": "tokenId",
          "type": "uint256"
        },
        {
          "internalType": "bytes",
          "name": "data",
          "type": "bytes"
        }
      ],
      "name": "safeTransferFrom",
      "outputs": [],
      "stateMutability": "nonpayable",
      "type": "function"
    },
    {
      "inputs": [
        {
          "internalType": "address",
          "name": "operator",
          "type": "address"
        },
        {
          "internalType": "bool",
          "name": "approved",
          "type": "bool"
        }
      ],
      "name": "setApprovalForAll",
      "outputs": [],
      "stateMutability": "nonpayable",
      "type": "function"
    },
    {
      "inputs": [
        {
          "internalType": "bytes4",
          "name": "interfaceId",
          "type": "bytes4"
        }
      ],
      "name": "supportsInterface",
      "outputs": [
        {
          "internalType": "bool",
          "name": "",
          "type": "bool"
        }
      ],
      "stateMutability": "view",
      "type": "function",
      "constant": true
    },
    {
      "inputs": [],
      "name": "symbol",
      "outputs": [
        {
          "internalType": "string",
          "name": "",
          "type": "string"
        }
      ],
      "stateMutability": "view",
      "type": "function",
      "constant": true
    },
    {
      "inputs": [
        {
          "internalType": "uint256",
          "name": "tokenId",
          "type": "uint256"
        }
      ],
      "name": "tokenURI",
      "outputs": [
        {
          "internalType": "string",
          "name": "",
          "type": "string"
        }
      ],
      "stateMutability": "view",
      "type": "function",
      "constant": true
    },
    {
      "inputs": [
        {
          "internalType": "address",
          "name": "from",
          "type": "address"
        },
        {
          "internalType": "address",
          "name": "to",
          "type": "address"
        },
        {
          "internalType": "uint256",
          "name": "tokenId",
          "type": "uint256"
        }
      ],
      "name": "transferFrom",
      "outputs": [],
      "stateMutability": "nonpayable",
      "type": "function"
    },
    {
      "inputs": [
        {
          "internalType": "address",
          "name": "newOwner",
          "type": "address"
        }
      ],
      "name": "transferOwnership",
      "outputs": [],
      "stateMutability": "nonpayable",
      "type": "function"
    },
    {
      "inputs": [
        {
          "internalType": "string",
          "name": "name",
          "type": "string"
        },
        {
          "internalType": "string",
          "name": "email",
          "type": "string"
        },
        {
          "internalType": "string",
          "name": "contactNo",
          "type": "string"
        },
        {
          "internalType": "string",
          "name": "gender",
          "type": "string"
        },
        {
          "internalType": "string",
          "name": "idType",
          "type": "string"
        },
        {
          "internalType": "string",
          "name": "idNo",
          "type": "string"
        }
      ],
      "name": "registerUser",
      "outputs": [],
      "stateMutability": "nonpayable",
      "type": "function"
    },
    {
      "inputs": [
        {
          "internalType": "string",
          "name": "title",
          "type": "string"
        },
        {
          "internalType": "string",
          "name": "author",
          "type": "string"
        },
        {
          "internalType": "string",
          "name": "publisher",
          "type": "string"
        },
        {
          "internalType": "string",
          "name": "isbn",
          "type": "string"
        }
      ],
      "name": "addBook",
      "outputs": [],
      "stateMutability": "nonpayable",
      "type": "function"
    },
    {
      "inputs": [
        {
          "internalType": "uint256",
          "name": "bookId",
          "type": "uint256"
        }
      ],
      "name": "getBookDetails",
      "outputs": [
        {
          "internalType": "uint256",
          "name": "",
          "type": "uint256"
        },
        {
          "internalType": "string",
          "name": "",
          "type": "string"
        },
        {
          "internalType": "string",
          "name": "",
          "type": "string"
        },
        {
          "internalType": "string",
          "name": "",
          "type": "string"
        },
        {
          "internalType": "string",
          "name": "",
          "type": "string"
        },
        {
          "internalType": "address",
          "name": "",
          "type": "address"
        },
        {
          "internalType": "address[]",
          "name": "",
          "type": "address[]"
        },
        {
          "internalType": "bool",
          "name": "",
          "type": "bool"
        }
      ],
      "stateMutability": "view",
      "type": "function",
      "constant": true
    },
    {
      "inputs": [],
      "name": "getBookIds",
      "outputs": [
        {
          "internalType": "uint256[]",
          "name": "",
          "type": "uint256[]"
        }
      ],
      "stateMutability": "view",
      "type": "function",
      "constant": true
    },
    {
      "inputs": [
        {
          "internalType": "uint256",
          "name": "bookId",
          "type": "uint256"
        }
      ],
      "name": "borrowBook",
      "outputs": [],
      "stateMutability": "nonpayable",
      "type": "function"
    },
    {
      "inputs": [
        {
          "internalType": "uint256",
          "name": "bookId",
          "type": "uint256"
        }
      ],
      "name": "returnBook",
      "outputs": [],
      "stateMutability": "nonpayable",
      "type": "function"
    }
  ],
  "bytecode": "0x60806040523480156200001157600080fd5b506040518060400160405280600d81526020017f4c69627261727920426f6f6b73000000000000000000000000000000000000008152506040518060400160405280600381526020017f4c424b000000000000000000000000000000000000000000000000000000000081525081600090816200008f919062000453565b508060019081620000a1919062000453565b505050620000c4620000b86200010b60201b60201c565b6200011360201b60201c565b33600a60006101000a81548173ffffffffffffffffffffffffffffffffffffffff021916908373ffffffffffffffffffffffffffffffffffffffff1602179055506200053a565b600033905090565b6000600660009054906101000a900473ffffffffffffffffffffffffffffffffffffffff16905081600660006101000a81548173ffffffffffffffffffffffffffffffffffffffff021916908373ffffffffffffffffffffffffffffffffffffffff1602179055508173ffffffffffffffffffffffffffffffffffffffff168173ffffffffffffffffffffffffffffffffffffffff167f8be0079c531659141344cd1fd0a4f28419497f9722a3daafe3b4186f6b6457e060405160405180910390a35050565b600081519050919050565b7f4e487b7100000000000000000000000000000000000000000000000000000000600052604160045260246000fd5b7f4e487b7100000000000000000000000000000000000000000000000000000000600052602260045260246000fd5b600060028204905060018216806200025b57607f821691505b60208210810362000271576200027062000213565b5b50919050565b60008190508160005260206000209050919050565b60006020601f8301049050919050565b600082821b905092915050565b600060088302620002db7fffffffffffffffffffffffffffffffffffffffffffffffffffffffffffffffff826200029c565b620002e786836200029c565b95508019841693508086168417925050509392505050565b6000819050919050565b6000819050919050565b6000620003346200032e6200032884620002ff565b62000309565b620002ff565b9050919050565b6000819050919050565b620003508362000313565b620003686200035f826200033b565b848454620002a9565b825550505050565b600090565b6200037f62000370565b6200038c81848462000345565b505050565b5b81811015620003b457620003a860008262000375565b60018101905062000392565b5050565b601f8211156200040357620003cd8162000277565b620003d8846200028c565b81016020851015620003e8578190505b62000400620003f7856200028c565b83018262000391565b50505b505050565b600082821c905092915050565b6000620004286000198460080262000408565b1980831691505092915050565b600062000443838362000415565b9150826002028217905092915050565b6200045e82620001d9565b67ffffffffffffffff8111156200047a5762000479620001e4565b5b62000486825462000242565b62000493828285620003b8565b600060209050601f831160018114620004cb5760008415620004b6578287015190505b620004c2858262000435565b86555062000532565b601f198416620004db8662000277565b60005b828110156200050557848901518255600182019150602085019450602081019050620004de565b8683101562000525578489015162000521601f89168262000415565b8355505b6001600288020188555050505b505050505050565b61449f806200054a6000396000f3fe608060405234801561001057600080fd5b50600436106101735760003560e01c80637e490a9e116100de578063a22cb46511610097578063c87b56dd11610071578063c87b56dd1461045c578063ca5140c91461048c578063e985e9c5146104a8578063f2fde38b146104d857610173565b8063a22cb46514610406578063a437d45f14610422578063b88d4fde1461044057610173565b80637e490a9e1461033e5780638da5cb5b1461035a57806395d89b41146103785780639f4e5de714610396578063a081c982146103cc578063a0d0b13d146103ea57610173565b806342842e0e1161013057806342842e0e146102655780636352211e1461028157806370a08231146102b1578063715018a6146102e157806374ff4818146102eb5780637832a0d11461032257610173565b806301ffc9a71461017857806306fdde03146101a8578063081812fc146101c6578063095ea7b3146101f657806323b872dd146102125780633cacd7d61461022e575b600080fd5b610192600480360381019061018d9190612b76565b6104f4565b60405161019f9190612bbe565b60405180910390f35b6101b06105d6565b6040516101bd9190612c69565b60405180910390f35b6101e060048036038101906101db9190612cc1565b610668565b6040516101ed9190612d2f565b60405180910390f35b610210600480360381019061020b9190612d76565b6106ae565b005b61022c60048036038101906102279190612db6565b6107c5565b005b61024860048036038101906102439190612e09565b610825565b60405161025c989796959493929190612e36565b60405180910390f35b61027f600480360381019061027a9190612db6565b610bca565b005b61029b60048036038101906102969190612cc1565b610bea565b6040516102a89190612d2f565b60405180910390f35b6102cb60048036038101906102c69190612e09565b610c70565b6040516102d89190612eed565b60405180910390f35b6102e9610d27565b005b61030560048036038101906103009190612cc1565b610d3b565b604051610319989796959493929190612fc6565b60405180910390f35b61033c6004803603810190610337919061319c565b611083565b005b61035860048036038101906103539190612cc1565b61122b565b005b61036261139e565b60405161036f9190612d2f565b60405180910390f35b6103806113c8565b60405161038d9190612c69565b60405180910390f35b6103b060048036038101906103ab9190612cc1565b61145a565b6040516103c397969594939291906132d1565b60405180910390f35b6103d46116e9565b6040516103e1919061341a565b60405180910390f35b61040460048036038101906103ff919061343c565b61179f565b005b610420600480360381019061041b919061353f565b611922565b005b61042a611938565b6040516104379190612d2f565b60405180910390f35b61045a60048036038101906104559190613620565b61195e565b005b61047660048036038101906104719190612cc1565b6119c0565b6040516104839190612c69565b60405180910390f35b6104a660048036038101906104a19190612cc1565b611a28565b005b6104c260048036038101906104bd91906136a3565b611b36565b6040516104cf9190612bbe565b60405180910390f35b6104f260048036038101906104ed9190612e09565b611bca565b005b60007f80ac58cd000000000000000000000000000000000000000000000000000000007bffffffffffffffffffffffffffffffffffffffffffffffffffffffff1916827bffffffffffffffffffffffffffffffffffffffffffffffffffffffff191614806105bf57507f5b5e139f000000000000000000000000000000000000000000000000000000007bffffffffffffffffffffffffffffffffffffffffffffffffffffffff1916827bffffffffffffffffffffffffffffffffffffffffffffffffffffffff1916145b806105cf57506105ce82611c4d565b5b9050919050565b6060600080546105e590613712565b80601f016020809104026020016040519081016040528092919081815260200182805461061190613712565b801561065e5780601f106106335761010080835404028352916020019161065e565b820191906000526020600020905b81548152906001019060200180831161064157829003601f168201915b5050505050905090565b600061067382611cb7565b6004600083815260200190815260200160002060009054906101000a900473ffffffffffffffffffffffffffffffffffffffff169050919050565b60006106b982610bea565b90508073ffffffffffffffffffffffffffffffffffffffff168373ffffffffffffffffffffffffffffffffffffffff1603610729576040517f08c379a0000000000000000000000000000000000000000000000000000000008152600401610720906137b5565b60405180910390fd5b8073ffffffffffffffffffffffffffffffffffffffff16610748611d02565b73ffffffffffffffffffffffffffffffffffffffff161480610777575061077681610771611d02565b611b36565b5b6107b6576040517f08c379a00000000000000000000000000000000000000000000000000000000081526004016107ad90613847565b60405180910390fd5b6107c08383611d0a565b505050565b6107d66107d0611d02565b82611dc3565b610815576040517f08c379a000000000000000000000000000000000000000000000000000000000815260040161080c906138d9565b60405180910390fd5b610820838383611e58565b505050565b600960205280600052604060002060009150905080600001805461084890613712565b80601f016020809104026020016040519081016040528092919081815260200182805461087490613712565b80156108c15780601f10610896576101008083540402835291602001916108c1565b820191906000526020600020905b8154815290600101906020018083116108a457829003601f168201915b5050505050908060010180546108d690613712565b80601f016020809104026020016040519081016040528092919081815260200182805461090290613712565b801561094f5780601f106109245761010080835404028352916020019161094f565b820191906000526020600020905b81548152906001019060200180831161093257829003601f168201915b50505050509080600201805461096490613712565b80601f016020809104026020016040519081016040528092919081815260200182805461099090613712565b80156109dd5780601f106109b2576101008083540402835291602001916109dd565b820191906000526020600020905b8154815290600101906020018083116109c057829003601f168201915b5050505050908060030180546109f290613712565b80601f0160208091040260200160405190810160405280929190818152602001828054610a1e90613712565b8015610a6b5780601f10610a4057610100808354040283529160200191610a6b565b820191906000526020600020905b815481529060010190602001808311610a4e57829003601f168201915b505050505090806004018054610a8090613712565b80601f0160208091040260200160405190810160405280929190818152602001828054610aac90613712565b8015610af95780601f10610ace57610100808354040283529160200191610af9565b820191906000526020600020905b815481529060010190602001808311610adc57829003601f168201915b505050505090806005018054610b0e90613712565b80601f0160208091040260200160405190810160405280929190818152602001828054610b3a90613712565b8015610b875780601f10610b5c57610100808354040283529160200191610b87565b820191906000526020600020905b815481529060010190602001808311610b6a57829003601f168201915b5050505050908060060160009054906101000a900473ffffffffffffffffffffffffffffffffffffffff16908060060160149054906101000a900460ff16905088565b610be58383836040518060200160405280600081525061195e565b505050565b600080610bf683612151565b9050600073ffffffffffffffffffffffffffffffffffffffff168173ffffffffffffffffffffffffffffffffffffffff1603610c67576040517f08c379a0000000000000000000000000000000000000000000000000000000008152600401610c5e90613945565b60405180910390fd5b80915050919050565b60008073ffffffffffffffffffffffffffffffffffffffff168273ffffffffffffffffffffffffffffffffffffffff1603610ce0576040517f08c379a0000000000000000000000000000000000000000000000000000000008152600401610cd7906139d7565b60405180910390fd5b600360008373ffffffffffffffffffffffffffffffffffffffff1673ffffffffffffffffffffffffffffffffffffffff168152602001908152602001600020549050919050565b610d2f61218e565b610d39600061220c565b565b600060608060608060006060600080600860008b815260200190815260200160002090508060000154816001018260020183600301846004018560050160009054906101000a900473ffffffffffffffffffffffffffffffffffffffff16866006018760070160009054906101000a900460ff16868054610dbb90613712565b80601f0160208091040260200160405190810160405280929190818152602001828054610de790613712565b8015610e345780601f10610e0957610100808354040283529160200191610e34565b820191906000526020600020905b815481529060010190602001808311610e1757829003601f168201915b50505050509650858054610e4790613712565b80601f0160208091040260200160405190810160405280929190818152602001828054610e7390613712565b8015610ec05780601f10610e9557610100808354040283529160200191610ec0565b820191906000526020600020905b815481529060010190602001808311610ea357829003601f168201915b50505050509550848054610ed390613712565b80601f0160208091040260200160405190810160405280929190818152602001828054610eff90613712565b8015610f4c5780601f10610f2157610100808354040283529160200191610f4c565b820191906000526020600020905b815481529060010190602001808311610f2f57829003601f168201915b50505050509450838054610f5f90613712565b80601f0160208091040260200160405190810160405280929190818152602001828054610f8b90613712565b8015610fd85780601f10610fad57610100808354040283529160200191610fd8565b820191906000526020600020905b815481529060010190602001808311610fbb57829003601f168201915b505050505093508180548060200260200160405190810160405280929190818152602001828054801561106057602002820191906000526020600020905b8160009054906101000a900473ffffffffffffffffffffffffffffffffffffffff1673ffffffffffffffffffffffffffffffffffffffff1681526020019060010190808311611016575b505050505091509850985098509850985098509850985050919395975091939597565b600960003373ffffffffffffffffffffffffffffffffffffffff1673ffffffffffffffffffffffffffffffffffffffff16815260200190815260200160002060060160149054906101000a900460ff1615611113576040517f08c379a000000000000000000000000000000000000000000000000000000000815260040161110a90613a43565b60405180910390fd5b6000600960003373ffffffffffffffffffffffffffffffffffffffff1673ffffffffffffffffffffffffffffffffffffffff1681526020019081526020016000209050868160000190816111679190613c0f565b50858160010190816111799190613c0f565b508481600201908161118b9190613c0f565b508381600301908161119d9190613c0f565b50828160040190816111af9190613c0f565b50818160050190816111c19190613c0f565b50338160060160006101000a81548173ffffffffffffffffffffffffffffffffffffffff021916908373ffffffffffffffffffffffffffffffffffffffff16021790555060008160060160146101000a81548160ff02191690831515021790555050505050505050565b6000600860008381526020019081526020016000209050600073ffffffffffffffffffffffffffffffffffffffff168160050160009054906101000a900473ffffffffffffffffffffffffffffffffffffffff1673ffffffffffffffffffffffffffffffffffffffff16146112d5576040517f08c379a00000000000000000000000000000000000000000000000000000000081526004016112cc90613d2d565b60405180910390fd5b338160050160006101000a81548173ffffffffffffffffffffffffffffffffffffffff021916908373ffffffffffffffffffffffffffffffffffffffff16021790555080600601339080600181540180825580915050600190039060005260206000200160009091909190916101000a81548173ffffffffffffffffffffffffffffffffffffffff021916908373ffffffffffffffffffffffffffffffffffffffff16021790555060008160070160006101000a81548160ff0219169083151502179055505050565b6000600660009054906101000a900473ffffffffffffffffffffffffffffffffffffffff16905090565b6060600180546113d790613712565b80601f016020809104026020016040519081016040528092919081815260200182805461140390613712565b80156114505780601f1061142557610100808354040283529160200191611450565b820191906000526020600020905b81548152906001019060200180831161143357829003601f168201915b5050505050905090565b600860205280600052604060002060009150905080600001549080600101805461148390613712565b80601f01602080910402602001604051908101604052809291908181526020018280546114af90613712565b80156114fc5780601f106114d1576101008083540402835291602001916114fc565b820191906000526020600020905b8154815290600101906020018083116114df57829003601f168201915b50505050509080600201805461151190613712565b80601f016020809104026020016040519081016040528092919081815260200182805461153d90613712565b801561158a5780601f1061155f5761010080835404028352916020019161158a565b820191906000526020600020905b81548152906001019060200180831161156d57829003601f168201915b50505050509080600301805461159f90613712565b80601f01602080910402602001604051908101604052809291908181526020018280546115cb90613712565b80156116185780601f106115ed57610100808354040283529160200191611618565b820191906000526020600020905b8154815290600101906020018083116115fb57829003601f168201915b50505050509080600401805461162d90613712565b80601f016020809104026020016040519081016040528092919081815260200182805461165990613712565b80156116a65780601f1061167b576101008083540402835291602001916116a6565b820191906000526020600020905b81548152906001019060200180831161168957829003601f168201915b5050505050908060050160009054906101000a900473ffffffffffffffffffffffffffffffffffffffff16908060070160009054906101000a900460ff16905087565b606060006116f760076122d2565b67ffffffffffffffff8111156117105761170f613071565b5b60405190808252806020026020018201604052801561173e5781602001602082028036833780820191505090505b5090506000600190505b61175260076122d2565b81116117975780826001836117679190613d7c565b8151811061177857611777613db0565b5b602002602001018181525050808061178f90613ddf565b915050611748565b508091505090565b600a60009054906101000a900473ffffffffffffffffffffffffffffffffffffffff1673ffffffffffffffffffffffffffffffffffffffff163373ffffffffffffffffffffffffffffffffffffffff161461182f576040517f08c379a000000000000000000000000000000000000000000000000000000000815260040161182690613e73565b60405180910390fd5b61183960076122e0565b600061184560076122d2565b905061185133826122f6565b6000600860008381526020019081526020016000209050818160000181905550858160010190816118829190613c0f565b50848160020190816118949190613c0f565b50838160030190816118a69190613c0f565b50828160040190816118b89190613c0f565b5060008160050160006101000a81548173ffffffffffffffffffffffffffffffffffffffff021916908373ffffffffffffffffffffffffffffffffffffffff16021790555060018160070160006101000a81548160ff021916908315150217905550505050505050565b61193461192d611d02565b8383612513565b5050565b600a60009054906101000a900473ffffffffffffffffffffffffffffffffffffffff1681565b61196f611969611d02565b83611dc3565b6119ae576040517f08c379a00000000000000000000000000000000000000000000000000000000081526004016119a5906138d9565b60405180910390fd5b6119ba8484848461267f565b50505050565b60606119cb82611cb7565b60006119d56126db565b905060008151116119f55760405180602001604052806000815250611a20565b806119ff846126f2565b604051602001611a10929190613ecf565b6040516020818303038152906040525b915050919050565b60006008600083815260200190815260200160002090503373ffffffffffffffffffffffffffffffffffffffff168160050160009054906101000a900473ffffffffffffffffffffffffffffffffffffffff1673ffffffffffffffffffffffffffffffffffffffff1614611ad1576040517f08c379a0000000000000000000000000000000000000000000000000000000008152600401611ac890613f3f565b60405180910390fd5b60008160050160006101000a81548173ffffffffffffffffffffffffffffffffffffffff021916908373ffffffffffffffffffffffffffffffffffffffff16021790555060018160070160006101000a81548160ff0219169083151502179055505050565b6000600560008473ffffffffffffffffffffffffffffffffffffffff1673ffffffffffffffffffffffffffffffffffffffff16815260200190815260200160002060008373ffffffffffffffffffffffffffffffffffffffff1673ffffffffffffffffffffffffffffffffffffffff16815260200190815260200160002060009054906101000a900460ff16905092915050565b611bd261218e565b600073ffffffffffffffffffffffffffffffffffffffff168173ffffffffffffffffffffffffffffffffffffffff1603611c41576040517f08c379a0000000000000000000000000000000000000000000000000000000008152600401611c3890613fd1565b60405180910390fd5b611c4a8161220c565b50565b60007f01ffc9a7000000000000000000000000000000000000000000000000000000007bffffffffffffffffffffffffffffffffffffffffffffffffffffffff1916827bffffffffffffffffffffffffffffffffffffffffffffffffffffffff1916149050919050565b611cc0816127c0565b611cff576040517f08c379a0000000000000000000000000000000000000000000000000000000008152600401611cf690613945565b60405180910390fd5b50565b600033905090565b816004600083815260200190815260200160002060006101000a81548173ffffffffffffffffffffffffffffffffffffffff021916908373ffffffffffffffffffffffffffffffffffffffff160217905550808273ffffffffffffffffffffffffffffffffffffffff16611d7d83610bea565b73ffffffffffffffffffffffffffffffffffffffff167f8c5be1e5ebec7d5bd14f71427d1e84f3dd0314c0f7b2291e5b200ac8c7c3b92560405160405180910390a45050565b600080611dcf83610bea565b90508073ffffffffffffffffffffffffffffffffffffffff168473ffffffffffffffffffffffffffffffffffffffff161480611e115750611e108185611b36565b5b80611e4f57508373ffffffffffffffffffffffffffffffffffffffff16611e3784610668565b73ffffffffffffffffffffffffffffffffffffffff16145b91505092915050565b8273ffffffffffffffffffffffffffffffffffffffff16611e7882610bea565b73ffffffffffffffffffffffffffffffffffffffff1614611ece576040517f08c379a0000000000000000000000000000000000000000000000000000000008152600401611ec590614063565b60405180910390fd5b600073ffffffffffffffffffffffffffffffffffffffff168273ffffffffffffffffffffffffffffffffffffffff1603611f3d576040517f08c379a0000000000000000000000000000000000000000000000000000000008152600401611f34906140f5565b60405180910390fd5b611f4a8383836001612801565b8273ffffffffffffffffffffffffffffffffffffffff16611f6a82610bea565b73ffffffffffffffffffffffffffffffffffffffff1614611fc0576040517f08c379a0000000000000000000000000000000000000000000000000000000008152600401611fb790614063565b60405180910390fd5b6004600082815260200190815260200160002060006101000a81549073ffffffffffffffffffffffffffffffffffffffff02191690556001600360008573ffffffffffffffffffffffffffffffffffffffff1673ffffffffffffffffffffffffffffffffffffffff168152602001908152602001600020600082825403925050819055506001600360008473ffffffffffffffffffffffffffffffffffffffff1673ffffffffffffffffffffffffffffffffffffffff16815260200190815260200160002060008282540192505081905550816002600083815260200190815260200160002060006101000a81548173ffffffffffffffffffffffffffffffffffffffff021916908373ffffffffffffffffffffffffffffffffffffffff160217905550808273ffffffffffffffffffffffffffffffffffffffff168473ffffffffffffffffffffffffffffffffffffffff167fddf252ad1be2c89b69c2b068fc378daa952ba7f163c4a11628f55a4df523b3ef60405160405180910390a461214c8383836001612807565b505050565b60006002600083815260200190815260200160002060009054906101000a900473ffffffffffffffffffffffffffffffffffffffff169050919050565b612196611d02565b73ffffffffffffffffffffffffffffffffffffffff166121b461139e565b73ffffffffffffffffffffffffffffffffffffffff161461220a576040517f08c379a000000000000000000000000000000000000000000000000000000000815260040161220190614161565b60405180910390fd5b565b6000600660009054906101000a900473ffffffffffffffffffffffffffffffffffffffff16905081600660006101000a81548173ffffffffffffffffffffffffffffffffffffffff021916908373ffffffffffffffffffffffffffffffffffffffff1602179055508173ffffffffffffffffffffffffffffffffffffffff168173ffffffffffffffffffffffffffffffffffffffff167f8be0079c531659141344cd1fd0a4f28419497f9722a3daafe3b4186f6b6457e060405160405180910390a35050565b600081600001549050919050565b6001816000016000828254019250508190555050565b600073ffffffffffffffffffffffffffffffffffffffff168273ffffffffffffffffffffffffffffffffffffffff1603612365576040517f08c379a000000000000000000000000000000000000000000000000000000000815260040161235c906141cd565b60405180910390fd5b61236e816127c0565b156123ae576040517f08c379a00000000000000000000000000000000000000000000000000000000081526004016123a590614239565b60405180910390fd5b6123bc600083836001612801565b6123c5816127c0565b15612405576040517f08c379a00000000000000000000000000000000000000000000000000000000081526004016123fc90614239565b60405180910390fd5b6001600360008473ffffffffffffffffffffffffffffffffffffffff1673ffffffffffffffffffffffffffffffffffffffff16815260200190815260200160002060008282540192505081905550816002600083815260200190815260200160002060006101000a81548173ffffffffffffffffffffffffffffffffffffffff021916908373ffffffffffffffffffffffffffffffffffffffff160217905550808273ffffffffffffffffffffffffffffffffffffffff16600073ffffffffffffffffffffffffffffffffffffffff167fddf252ad1be2c89b69c2b068fc378daa952ba7f163c4a11628f55a4df523b3ef60405160405180910390a461250f600083836001612807565b5050565b8173ffffffffffffffffffffffffffffffffffffffff168373ffffffffffffffffffffffffffffffffffffffff1603612581576040517f08c379a0000000000000000000000000000000000000000000000000000000008152600401612578906142a5565b60405180910390fd5b80600560008573ffffffffffffffffffffffffffffffffffffffff1673ffffffffffffffffffffffffffffffffffffffff16815260200190815260200160002060008473ffffffffffffffffffffffffffffffffffffffff1673ffffffffffffffffffffffffffffffffffffffff16815260200190815260200160002060006101000a81548160ff0219169083151502179055508173ffffffffffffffffffffffffffffffffffffffff168373ffffffffffffffffffffffffffffffffffffffff167f17307eab39ab6107e8899845ad3d59bd9653f200f220920489ca2b5937696c31836040516126729190612bbe565b60405180910390a3505050565b61268a848484611e58565b6126968484848461280d565b6126d5576040517f08c379a00000000000000000000000000000000000000000000000000000000081526004016126cc90614337565b60405180910390fd5b50505050565b606060405180602001604052806000815250905090565b60606000600161270184612994565b01905060008167ffffffffffffffff8111156127205761271f613071565b5b6040519080825280601f01601f1916602001820160405280156127525781602001600182028036833780820191505090505b509050600082602001820190505b6001156127b5578080600190039150507f3031323334353637383961626364656600000000000000000000000000000000600a86061a8153600a85816127a9576127a8614357565b5b04945060008503612760575b819350505050919050565b60008073ffffffffffffffffffffffffffffffffffffffff166127e283612151565b73ffffffffffffffffffffffffffffffffffffffff1614159050919050565b50505050565b50505050565b600061282e8473ffffffffffffffffffffffffffffffffffffffff16612ae7565b15612987578373ffffffffffffffffffffffffffffffffffffffff1663150b7a02612857611d02565b8786866040518563ffffffff1660e01b815260040161287994939291906143db565b6020604051808303816000875af19250505080156128b557506040513d601f19601f820116820180604052508101906128b2919061443c565b60015b612937573d80600081146128e5576040519150601f19603f3d011682016040523d82523d6000602084013e6128ea565b606091505b50600081510361292f576040517f08c379a000000000000000000000000000000000000000000000000000000000815260040161292690614337565b60405180910390fd5b805181602001fd5b63150b7a0260e01b7bffffffffffffffffffffffffffffffffffffffffffffffffffffffff1916817bffffffffffffffffffffffffffffffffffffffffffffffffffffffff19161491505061298c565b600190505b949350505050565b600080600090507a184f03e93ff9f4daa797ed6e38ed64bf6a1f01000000000000000083106129f2577a184f03e93ff9f4daa797ed6e38ed64bf6a1f01000000000000000083816129e8576129e7614357565b5b0492506040810190505b6d04ee2d6d415b85acef81000000008310612a2f576d04ee2d6d415b85acef81000000008381612a2557612a24614357565b5b0492506020810190505b662386f26fc100008310612a5e57662386f26fc100008381612a5457612a53614357565b5b0492506010810190505b6305f5e1008310612a87576305f5e1008381612a7d57612a7c614357565b5b0492506008810190505b6127108310612aac576127108381612aa257612aa1614357565b5b0492506004810190505b60648310612acf5760648381612ac557612ac4614357565b5b0492506002810190505b600a8310612ade576001810190505b80915050919050565b6000808273ffffffffffffffffffffffffffffffffffffffff163b119050919050565b6000604051905090565b600080fd5b600080fd5b60007fffffffff0000000000000000000000000000000000000000000000000000000082169050919050565b612b5381612b1e565b8114612b5e57600080fd5b50565b600081359050612b7081612b4a565b92915050565b600060208284031215612b8c57612b8b612b14565b5b6000612b9a84828501612b61565b91505092915050565b60008115159050919050565b612bb881612ba3565b82525050565b6000602082019050612bd36000830184612baf565b92915050565b600081519050919050565b600082825260208201905092915050565b60005b83811015612c13578082015181840152602081019050612bf8565b60008484015250505050565b6000601f19601f8301169050919050565b6000612c3b82612bd9565b612c458185612be4565b9350612c55818560208601612bf5565b612c5e81612c1f565b840191505092915050565b60006020820190508181036000830152612c838184612c30565b905092915050565b6000819050919050565b612c9e81612c8b565b8114612ca957600080fd5b50565b600081359050612cbb81612c95565b92915050565b600060208284031215612cd757612cd6612b14565b5b6000612ce584828501612cac565b91505092915050565b600073ffffffffffffffffffffffffffffffffffffffff82169050919050565b6000612d1982612cee565b9050919050565b612d2981612d0e565b82525050565b6000602082019050612d446000830184612d20565b92915050565b612d5381612d0e565b8114612d5e57600080fd5b50565b600081359050612d7081612d4a565b92915050565b60008060408385031215612d8d57612d8c612b14565b5b6000612d9b85828601612d61565b9250506020612dac85828601612cac565b9150509250929050565b600080600060608486031215612dcf57612dce612b14565b5b6000612ddd86828701612d61565b9350506020612dee86828701612d61565b9250506040612dff86828701612cac565b9150509250925092565b600060208284031215612e1f57612e1e612b14565b5b6000612e2d84828501612d61565b91505092915050565b6000610100820190508181036000830152612e51818b612c30565b90508181036020830152612e65818a612c30565b90508181036040830152612e798189612c30565b90508181036060830152612e8d8188612c30565b90508181036080830152612ea18187612c30565b905081810360a0830152612eb58186612c30565b9050612ec460c0830185612d20565b612ed160e0830184612baf565b9998505050505050505050565b612ee781612c8b565b82525050565b6000602082019050612f026000830184612ede565b92915050565b600081519050919050565b600082825260208201905092915050565b6000819050602082019050919050565b612f3d81612d0e565b82525050565b6000612f4f8383612f34565b60208301905092915050565b6000602082019050919050565b6000612f7382612f08565b612f7d8185612f13565b9350612f8883612f24565b8060005b83811015612fb9578151612fa08882612f43565b9750612fab83612f5b565b925050600181019050612f8c565b5085935050505092915050565b600061010082019050612fdc600083018b612ede565b8181036020830152612fee818a612c30565b905081810360408301526130028189612c30565b905081810360608301526130168188612c30565b9050818103608083015261302a8187612c30565b905061303960a0830186612d20565b81810360c083015261304b8185612f68565b905061305a60e0830184612baf565b9998505050505050505050565b600080fd5b600080fd5b7f4e487b7100000000000000000000000000000000000000000000000000000000600052604160045260246000fd5b6130a982612c1f565b810181811067ffffffffffffffff821117156130c8576130c7613071565b5b80604052505050565b60006130db612b0a565b90506130e782826130a0565b919050565b600067ffffffffffffffff82111561310757613106613071565b5b61311082612c1f565b9050602081019050919050565b82818337600083830152505050565b600061313f61313a846130ec565b6130d1565b90508281526020810184848401111561315b5761315a61306c565b5b61316684828561311d565b509392505050565b600082601f83011261318357613182613067565b5b813561319384826020860161312c565b91505092915050565b60008060008060008060c087890312156131b9576131b8612b14565b5b600087013567ffffffffffffffff8111156131d7576131d6612b19565b5b6131e389828a0161316e565b965050602087013567ffffffffffffffff81111561320457613203612b19565b5b61321089828a0161316e565b955050604087013567ffffffffffffffff81111561323157613230612b19565b5b61323d89828a0161316e565b945050606087013567ffffffffffffffff81111561325e5761325d612b19565b5b61326a89828a0161316e565b935050608087013567ffffffffffffffff81111561328b5761328a612b19565b5b61329789828a0161316e565b92505060a087013567ffffffffffffffff8111156132b8576132b7612b19565b5b6132c489828a0161316e565b9150509295509295509295565b600060e0820190506132e6600083018a612ede565b81810360208301526132f88189612c30565b9050818103604083015261330c8188612c30565b905081810360608301526133208187612c30565b905081810360808301526133348186612c30565b905061334360a0830185612d20565b61335060c0830184612baf565b98975050505050505050565b600081519050919050565b600082825260208201905092915050565b6000819050602082019050919050565b61339181612c8b565b82525050565b60006133a38383613388565b60208301905092915050565b6000602082019050919050565b60006133c78261335c565b6133d18185613367565b93506133dc83613378565b8060005b8381101561340d5781516133f48882613397565b97506133ff836133af565b9250506001810190506133e0565b5085935050505092915050565b6000602082019050818103600083015261343481846133bc565b905092915050565b6000806000806080858703121561345657613455612b14565b5b600085013567ffffffffffffffff81111561347457613473612b19565b5b6134808782880161316e565b945050602085013567ffffffffffffffff8111156134a1576134a0612b19565b5b6134ad8782880161316e565b935050604085013567ffffffffffffffff8111156134ce576134cd612b19565b5b6134da8782880161316e565b925050606085013567ffffffffffffffff8111156134fb576134fa612b19565b5b6135078782880161316e565b91505092959194509250565b61351c81612ba3565b811461352757600080fd5b50565b60008135905061353981613513565b92915050565b6000806040838503121561355657613555612b14565b5b600061356485828601612d61565b92505060206135758582860161352a565b9150509250929050565b600067ffffffffffffffff82111561359a57613599613071565b5b6135a382612c1f565b9050602081019050919050565b60006135c36135be8461357f565b6130d1565b9050828152602081018484840111156135df576135de61306c565b5b6135ea84828561311d565b509392505050565b600082601f83011261360757613606613067565b5b81356136178482602086016135b0565b91505092915050565b6000806000806080858703121561363a57613639612b14565b5b600061364887828801612d61565b945050602061365987828801612d61565b935050604061366a87828801612cac565b925050606085013567ffffffffffffffff81111561368b5761368a612b19565b5b613697878288016135f2565b91505092959194509250565b600080604083850312156136ba576136b9612b14565b5b60006136c885828601612d61565b92505060206136d985828601612d61565b9150509250929050565b7f4e487b7100000000000000000000000000000000000000000000000000000000600052602260045260246000fd5b6000600282049050600182168061372a57607f821691505b60208210810361373d5761373c6136e3565b5b50919050565b7f4552433732313a20617070726f76616c20746f2063757272656e74206f776e6560008201527f7200000000000000000000000000000000000000000000000000000000000000602082015250565b600061379f602183612be4565b91506137aa82613743565b604082019050919050565b600060208201905081810360008301526137ce81613792565b9050919050565b7f4552433732313a20617070726f76652063616c6c6572206973206e6f7420746f60008201527f6b656e206f776e6572206f7220617070726f76656420666f7220616c6c000000602082015250565b6000613831603d83612be4565b915061383c826137d5565b604082019050919050565b6000602082019050818103600083015261386081613824565b9050919050565b7f4552433732313a2063616c6c6572206973206e6f7420746f6b656e206f776e6560008201527f72206f7220617070726f76656400000000000000000000000000000000000000602082015250565b60006138c3602d83612be4565b91506138ce82613867565b604082019050919050565b600060208201905081810360008301526138f2816138b6565b9050919050565b7f4552433732313a20696e76616c696420746f6b656e2049440000000000000000600082015250565b600061392f601883612be4565b915061393a826138f9565b602082019050919050565b6000602082019050818103600083015261395e81613922565b9050919050565b7f4552433732313a2061646472657373207a65726f206973206e6f74206120766160008201527f6c6964206f776e65720000000000000000000000000000000000000000000000602082015250565b60006139c1602983612be4565b91506139cc82613965565b604082019050919050565b600060208201905081810360008301526139f0816139b4565b9050919050565b7f5573657220697320616c72656164792072656769737465726564000000000000600082015250565b6000613a2d601a83612be4565b9150613a38826139f7565b602082019050919050565b60006020820190508181036000830152613a5c81613a20565b9050919050565b60008190508160005260206000209050919050565b60006020601f8301049050919050565b600082821b905092915050565b600060088302613ac57fffffffffffffffffffffffffffffffffffffffffffffffffffffffffffffffff82613a88565b613acf8683613a88565b95508019841693508086168417925050509392505050565b6000819050919050565b6000613b0c613b07613b0284612c8b565b613ae7565b612c8b565b9050919050565b6000819050919050565b613b2683613af1565b613b3a613b3282613b13565b848454613a95565b825550505050565b600090565b613b4f613b42565b613b5a818484613b1d565b505050565b5b81811015613b7e57613b73600082613b47565b600181019050613b60565b5050565b601f821115613bc357613b9481613a63565b613b9d84613a78565b81016020851015613bac578190505b613bc0613bb885613a78565b830182613b5f565b50505b505050565b600082821c905092915050565b6000613be660001984600802613bc8565b1980831691505092915050565b6000613bff8383613bd5565b9150826002028217905092915050565b613c1882612bd9565b67ffffffffffffffff811115613c3157613c30613071565b5b613c3b8254613712565b613c46828285613b82565b600060209050601f831160018114613c795760008415613c67578287015190505b613c718582613bf3565b865550613cd9565b601f198416613c8786613a63565b60005b82811015613caf57848901518255600182019150602085019450602081019050613c8a565b86831015613ccc5784890151613cc8601f891682613bd5565b8355505b6001600288020188555050505b505050505050565b7f416c6561647920426f72726f7765640000000000000000000000000000000000600082015250565b6000613d17600f83612be4565b9150613d2282613ce1565b602082019050919050565b60006020820190508181036000830152613d4681613d0a565b9050919050565b7f4e487b7100000000000000000000000000000000000000000000000000000000600052601160045260246000fd5b6000613d8782612c8b565b9150613d9283612c8b565b9250828203905081811115613daa57613da9613d4d565b5b92915050565b7f4e487b7100000000000000000000000000000000000000000000000000000000600052603260045260246000fd5b6000613dea82612c8b565b91507fffffffffffffffffffffffffffffffffffffffffffffffffffffffffffffffff8203613e1c57613e1b613d4d565b5b600182019050919050565b7f556e617574686f72697a65640000000000000000000000000000000000000000600082015250565b6000613e5d600c83612be4565b9150613e6882613e27565b602082019050919050565b60006020820190508181036000830152613e8c81613e50565b9050919050565b600081905092915050565b6000613ea982612bd9565b613eb38185613e93565b9350613ec3818560208601612bf5565b80840191505092915050565b6000613edb8285613e9e565b9150613ee78284613e9e565b91508190509392505050565b7f596f75206469646e27742072656e742069742e00000000000000000000000000600082015250565b6000613f29601383612be4565b9150613f3482613ef3565b602082019050919050565b60006020820190508181036000830152613f5881613f1c565b9050919050565b7f4f776e61626c653a206e6577206f776e657220697320746865207a65726f206160008201527f6464726573730000000000000000000000000000000000000000000000000000602082015250565b6000613fbb602683612be4565b9150613fc682613f5f565b604082019050919050565b60006020820190508181036000830152613fea81613fae565b9050919050565b7f4552433732313a207472616e736665722066726f6d20696e636f72726563742060008201527f6f776e6572000000000000000000000000000000000000000000000000000000602082015250565b600061404d602583612be4565b915061405882613ff1565b604082019050919050565b6000602082019050818103600083015261407c81614040565b9050919050565b7f4552433732313a207472616e7366657220746f20746865207a65726f2061646460008201527f7265737300000000000000000000000000000000000000000000000000000000602082015250565b60006140df602483612be4565b91506140ea82614083565b604082019050919050565b6000602082019050818103600083015261410e816140d2565b9050919050565b7f4f776e61626c653a2063616c6c6572206973206e6f7420746865206f776e6572600082015250565b600061414b602083612be4565b915061415682614115565b602082019050919050565b6000602082019050818103600083015261417a8161413e565b9050919050565b7f4552433732313a206d696e7420746f20746865207a65726f2061646472657373600082015250565b60006141b7602083612be4565b91506141c282614181565b602082019050919050565b600060208201905081810360008301526141e6816141aa565b9050919050565b7f4552433732313a20746f6b656e20616c7265616479206d696e74656400000000600082015250565b6000614223601c83612be4565b915061422e826141ed565b602082019050919050565b6000602082019050818103600083015261425281614216565b9050919050565b7f4552433732313a20617070726f766520746f2063616c6c657200000000000000600082015250565b600061428f601983612be4565b915061429a82614259565b602082019050919050565b600060208201905081810360008301526142be81614282565b9050919050565b7f4552433732313a207472616e7366657220746f206e6f6e20455243373231526560008201527f63656976657220696d706c656d656e7465720000000000000000000000000000602082015250565b6000614321603283612be4565b915061432c826142c5565b604082019050919050565b6000602082019050818103600083015261435081614314565b9050919050565b7f4e487b7100000000000000000000000000000000000000000000000000000000600052601260045260246000fd5b600081519050919050565b600082825260208201905092915050565b60006143ad82614386565b6143b78185614391565b93506143c7818560208601612bf5565b6143d081612c1f565b840191505092915050565b60006080820190506143f06000830187612d20565b6143fd6020830186612d20565b61440a6040830185612ede565b818103606083015261441c81846143a2565b905095945050505050565b60008151905061443681612b4a565b92915050565b60006020828403121561445257614451612b14565b5b600061446084828501614427565b9150509291505056fea26469706673582212204a851ba2fa4745f8e939b211394a3d5de0eaaaea02730e95d8770e77b34dffd664736f6c63430008130033",
  "immutableReferences": {},
  "source": "// SPDX-License-Identifier: GPL-3.0\n\npragma solidity >=0.8.2 <0.9.0;\n\n\nimport \"@openzeppelin/contracts/token/ERC721/ERC721.sol\";\nimport \"@openzeppelin/contracts/access/Ownable.sol\";\nimport \"@openzeppelin/contracts/utils/Counters.sol\";\nimport \"@openzeppelin/contracts/utils/math/SafeMath.sol\";\n\ncontract LibraryBooks is ERC721, Ownable {\n    using Counters for Counters.Counter;\n    using SafeMath for uint256;\n\n    Counters.Counter private _tokenIds;\n\n    struct Book {\n        uint256 id;\n        string title;\n        string author;\n        string publisher;\n        string isbn;\n        address borrowerAddress;\n        address[] issuers;\n        bool isAvailable;\n    }\n\n    struct User {\n        string name;\n        string email;\n        string contactNo;\n        string gender;\n        string idType;\n        string idNo;\n        address userAddress;\n        bool isRegistered;\n    }\n\n    mapping(uint256 => Book) public _books;\n    mapping(address => User) public _users;\n\n    address public librarian;\n\n    constructor() ERC721(\"Library Books\", \"LBK\") {\n        librarian = msg.sender;\n    }\n\n    modifier onlyLibrarian(){\n        require(msg.sender == librarian, \"Unauthorized\");\n        _;\n    }\n\n    function registerUser(\n        string memory name,\n        string memory email,\n        string memory contactNo,\n        string memory gender,\n        string memory idType,\n        string memory idNo\n        // address userAddress,\n        // bool isRegistered\n        ) external {\n            require(!_users[msg.sender].isRegistered, \"User is already registered\");\n\n        User storage user = _users[msg.sender];\n        user.name = name;\n        user.email = email;\n        user.contactNo = contactNo;\n        user.gender = gender;\n        user.idType = idType;\n        user.idNo = idNo;\n        user.userAddress = msg.sender;\n        user.isRegistered = false;\n        }\n\n        function addBook(string memory title, string memory author, string memory publisher, string memory isbn) external onlyLibrarian(){\n            _tokenIds.increment();\n            uint256 bookId = _tokenIds.current();\n            _mint(msg.sender, bookId);\n\n            Book storage newBook = _books[bookId];\n            newBook.id = bookId;\n            newBook.title = title;\n            newBook.author = author;\n            newBook.publisher = publisher;\n            newBook.isbn = isbn;\n            newBook.borrowerAddress = address(0);\n            newBook.isAvailable = true;\n        }\n\n        function getBookDetails(uint256 bookId) external view returns(uint256, string memory, string memory,string memory,string memory,address, address[] memory ,bool){\n            Book storage book = _books[bookId];\n            return(\n                book.id,\n                book.title,\n                book.author,\n                book.publisher,\n                book.isbn,\n                book.borrowerAddress,\n                book.issuers,\n                book.isAvailable\n            );\n        }\n\n        function getBookIds() external view returns(uint256[] memory){\n            uint256[] memory bookIds = new uint256[](_tokenIds.current());\n            for(uint256 i =1 ;i<= _tokenIds.current(); i++){\n                bookIds[i-1] = i;\n            }\n            return bookIds;\n        }\n        function borrowBook(uint256 bookId) external{\n            Book storage book = _books[bookId];\n            require(book.borrowerAddress == address(0),\"Aleady Borrowed\");\n//\n            book.borrowerAddress = msg.sender;\n            book.issuers.push(msg.sender);\n            book.isAvailable = false;\n        }\n\n        function returnBook(uint256 bookId) external {\n            Book storage book = _books[bookId];\n            require(book.borrowerAddress == msg.sender,\"You didn't rent it.\");\n\n            book.borrowerAddress = address(0);\n            book.isAvailable = true;\n        }\n\n}",
  "sourcePath": "/home/yogesh/Documents/GitHub/Lib/contracts/LibraryBooks.sol",
  "compiler": {
    "name": "solc",
    "version": "0.8.19+commit.7dd6d404.Emscripten.clang"
  },
  "schemaVersion": "3.4.13",
  "updatedAt": "2023-05-31T13:04:42.877Z",
  "networkType": "ethereum",
  "devdoc": {
    "events": {
      "Approval(address,address,uint256)": {
        "details": "Emitted when `owner` enables `approved` to manage the `tokenId` token."
      },
      "ApprovalForAll(address,address,bool)": {
        "details": "Emitted when `owner` enables or disables (`approved`) `operator` to manage all of its assets."
      },
      "Transfer(address,address,uint256)": {
        "details": "Emitted when `tokenId` token is transferred from `from` to `to`."
      }
    },
    "kind": "dev",
    "methods": {
      "approve(address,uint256)": {
        "details": "See {IERC721-approve}."
      },
      "balanceOf(address)": {
        "details": "See {IERC721-balanceOf}."
      },
      "getApproved(uint256)": {
        "details": "See {IERC721-getApproved}."
      },
      "isApprovedForAll(address,address)": {
        "details": "See {IERC721-isApprovedForAll}."
      },
      "name()": {
        "details": "See {IERC721Metadata-name}."
      },
      "owner()": {
        "details": "Returns the address of the current owner."
      },
      "ownerOf(uint256)": {
        "details": "See {IERC721-ownerOf}."
      },
      "renounceOwnership()": {
        "details": "Leaves the contract without owner. It will not be possible to call `onlyOwner` functions anymore. Can only be called by the current owner. NOTE: Renouncing ownership will leave the contract without an owner, thereby removing any functionality that is only available to the owner."
      },
      "safeTransferFrom(address,address,uint256)": {
        "details": "See {IERC721-safeTransferFrom}."
      },
      "safeTransferFrom(address,address,uint256,bytes)": {
        "details": "See {IERC721-safeTransferFrom}."
      },
      "setApprovalForAll(address,bool)": {
        "details": "See {IERC721-setApprovalForAll}."
      },
      "supportsInterface(bytes4)": {
        "details": "See {IERC165-supportsInterface}."
      },
      "symbol()": {
        "details": "See {IERC721Metadata-symbol}."
      },
      "tokenURI(uint256)": {
        "details": "See {IERC721Metadata-tokenURI}."
      },
      "transferFrom(address,address,uint256)": {
        "details": "See {IERC721-transferFrom}."
      },
      "transferOwnership(address)": {
        "details": "Transfers ownership of the contract to a new account (`newOwner`). Can only be called by the current owner."
      }
    },
    "version": 1
  },
  "userdoc": {
    "kind": "user",
    "methods": {},
    "version": 1
  }
}